{"contracts/SoulboundPledgeNFT.sol":{"SoulboundPledgeNFT":{"abi":[{"inputs":[{"internalType":"address","name":"_pledgeContract","type":"address"}],"stateMutability":"nonpayable","type":"constructor"},{"inputs":[{"internalType":"address","name":"sender","type":"address"},{"internalType":"uint256","name":"tokenId","type":"uint256"},{"internalType":"address","name":"owner","type":"address"}],"name":"ERC721IncorrectOwner","type":"error"},{"inputs":[{"internalType":"address","name":"operator","type":"address"},{"internalType":"uint256","name":"tokenId","type":"uint256"}],"name":"ERC721InsufficientApproval","type":"error"},{"inputs":[{"internalType":"address","name":"approver","type":"address"}],"name":"ERC721InvalidApprover","type":"error"},{"inputs":[{"internalType":"address","name":"operator","type":"address"}],"name":"ERC721InvalidOperator","type":"error"},{"inputs":[{"internalType":"address","name":"owner","type":"address"}],"name":"ERC721InvalidOwner","type":"error"},{"inputs":[{"internalType":"address","name":"receiver","type":"address"}],"name":"ERC721InvalidReceiver","type":"error"},{"inputs":[{"internalType":"address","name":"sender","type":"address"}],"name":"ERC721InvalidSender","type":"error"},{"inputs":[{"internalType":"uint256","name":"tokenId","type":"uint256"}],"name":"ERC721NonexistentToken","type":"error"},{"inputs":[{"internalType":"address","name":"owner","type":"address"}],"name":"OwnableInvalidOwner","type":"error"},{"inputs":[{"internalType":"address","name":"account","type":"address"}],"name":"OwnableUnauthorizedAccount","type":"error"},{"anonymous":false,"inputs":[{"indexed":true,"internalType":"address","name":"owner","type":"address"},{"indexed":true,"internalType":"address","name":"approved","type":"address"},{"indexed":true,"internalType":"uint256","name":"tokenId","type":"uint256"}],"name":"Approval","type":"event"},{"anonymous":false,"inputs":[{"indexed":true,"internalType":"address","name":"owner","type":"address"},{"indexed":true,"internalType":"address","name":"operator","type":"address"},{"indexed":false,"internalType":"bool","name":"approved","type":"bool"}],"name":"ApprovalForAll","type":"event"},{"anonymous":false,"inputs":[{"indexed":true,"internalType":"address","name":"previousOwner","type":"address"},{"indexed":true,"internalType":"address","name":"newOwner","type":"address"}],"name":"OwnershipTransferred","type":"event"},{"anonymous":false,"inputs":[{"indexed":true,"internalType":"uint256","name":"tokenId","type":"uint256"},{"indexed":true,"internalType":"address","name":"pledger","type":"address"},{"indexed":true,"internalType":"uint256","name":"campaignId","type":"uint256"},{"indexed":false,"internalType":"uint256","name":"pledgeAmount","type":"uint256"}],"name":"SoulboundNFTMinted","type":"event"},{"anonymous":false,"inputs":[{"indexed":true,"internalType":"address","name":"from","type":"address"},{"indexed":true,"internalType":"address","name":"to","type":"address"},{"indexed":true,"internalType":"uint256","name":"tokenId","type":"uint256"}],"name":"Transfer","type":"event"},{"inputs":[{"internalType":"address","name":"","type":"address"},{"internalType":"uint256","name":"","type":"uint256"}],"name":"approve","outputs":[],"stateMutability":"pure","type":"function"},{"inputs":[{"internalType":"address","name":"owner","type":"address"}],"name":"balanceOf","outputs":[{"internalType":"uint256","name":"","type":"uint256"}],"stateMutability":"view","type":"function"},{"inputs":[{"internalType":"uint256","name":"tokenId","type":"uint256"}],"name":"getApproved","outputs":[{"internalType":"address","name":"","type":"address"}],"stateMutability":"view","type":"function"},{"inputs":[{"internalType":"uint256","name":"_tokenId","type":"uint256"}],"name":"getPledgeNFT","outputs":[{"components":[{"internalType":"uint256","name":"campaignId","type":"uint256"},{"internalType":"uint256","name":"pledgeAmount","type":"uint256"},{"internalType":"uint256","name":"timestamp","type":"uint256"},{"internalType":"address","name":"pledger","type":"address"},{"internalType":"string","name":"campaignTitle","type":"string"}],"internalType":"struct SoulboundPledgeNFT.PledgeNFT","name":"","type":"tuple"}],"stateMutability":"view","type":"function"},{"inputs":[{"internalType":"address","name":"_user","type":"address"}],"name":"getTotalPledgedByUser","outputs":[{"internalType":"uint256","name":"","type":"uint256"}],"stateMutability":"view","type":"function"},{"inputs":[{"internalType":"address","name":"_user","type":"address"}],"name":"getUserNFTs","outputs":[{"internalType":"uint256[]","name":"","type":"uint256[]"}],"stateMutability":"view","type":"function"},{"inputs":[{"internalType":"address","name":"owner","type":"address"},{"internalType":"address","name":"operator","type":"address"}],"name":"isApprovedForAll","outputs":[{"internalType":"bool","name":"","type":"bool"}],"stateMutability":"view","type":"function"},{"inputs":[{"internalType":"address","name":"_to","type":"address"},{"internalType":"uint256","name":"_campaignId","type":"uint256"},{"internalType":"uint256","name":"_pledgeAmount","type":"uint256"},{"internalType":"string","name":"_campaignTitle","type":"string"}],"name":"mintPledgeSBT","outputs":[{"internalType":"uint256","name":"","type":"uint256"}],"stateMutability":"nonpayable","type":"function"},{"inputs":[],"name":"name","outputs":[{"internalType":"string","name":"","type":"string"}],"stateMutability":"view","type":"function"},{"inputs":[],"name":"owner","outputs":[{"internalType":"address","name":"","type":"address"}],"stateMutability":"view","type":"function"},{"inputs":[{"internalType":"uint256","name":"tokenId","type":"uint256"}],"name":"ownerOf","outputs":[{"internalType":"address","name":"","type":"address"}],"stateMutability":"view","type":"function"},{"inputs":[],"name":"pledgeContract","outputs":[{"internalType":"address","name":"","type":"address"}],"stateMutability":"view","type":"function"},{"inputs":[{"internalType":"uint256","name":"","type":"uint256"}],"name":"pledgeNFTs","outputs":[{"internalType":"uint256","name":"campaignId","type":"uint256"},{"internalType":"uint256","name":"pledgeAmount","type":"uint256"},{"internalType":"uint256","name":"timestamp","type":"uint256"},{"internalType":"address","name":"pledger","type":"address"},{"internalType":"string","name":"campaignTitle","type":"string"}],"stateMutability":"view","type":"function"},{"inputs":[],"name":"renounceOwnership","outputs":[],"stateMutability":"nonpayable","type":"function"},{"inputs":[{"internalType":"address","name":"from","type":"address"},{"internalType":"address","name":"to","type":"address"},{"internalType":"uint256","name":"tokenId","type":"uint256"}],"name":"safeTransferFrom","outputs":[],"stateMutability":"nonpayable","type":"function"},{"inputs":[{"internalType":"address","name":"from","type":"address"},{"internalType":"address","name":"to","type":"address"},{"internalType":"uint256","name":"tokenId","type":"uint256"},{"internalType":"bytes","name":"data","type":"bytes"}],"name":"safeTransferFrom","outputs":[],"stateMutability":"nonpayable","type":"function"},{"inputs":[{"internalType":"address","name":"","type":"address"},{"internalType":"bool","name":"","type":"bool"}],"name":"setApprovalForAll","outputs":[],"stateMutability":"pure","type":"function"},{"inputs":[{"internalType":"address","name":"_pledgeContract","type":"address"}],"name":"setPledgeContract","outputs":[],"stateMutability":"nonpayable","type":"function"},{"inputs":[{"internalType":"bytes4","name":"interfaceId","type":"bytes4"}],"name":"supportsInterface","outputs":[{"internalType":"bool","name":"","type":"bool"}],"stateMutability":"view","type":"function"},{"inputs":[],"name":"symbol","outputs":[{"internalType":"string","name":"","type":"string"}],"stateMutability":"view","type":"function"},{"inputs":[],"name":"tokenCounter","outputs":[{"internalType":"uint256","name":"","type":"uint256"}],"stateMutability":"view","type":"function"},{"inputs":[{"internalType":"uint256","name":"tokenId","type":"uint256"}],"name":"tokenURI","outputs":[{"internalType":"string","name":"","type":"string"}],"stateMutability":"view","type":"function"},{"inputs":[{"internalType":"address","name":"from","type":"address"},{"internalType":"address","name":"to","type":"address"},{"internalType":"uint256","name":"tokenId","type":"uint256"}],"name":"transferFrom","outputs":[],"stateMutability":"nonpayable","type":"function"},{"inputs":[{"internalType":"address","name":"newOwner","type":"address"}],"name":"transferOwnership","outputs":[],"stateMutability":"nonpayable","type":"function"},{"inputs":[{"internalType":"address","name":"","type":"address"},{"internalType":"uint256","name":"","type":"uint256"}],"name":"userNFTs","outputs":[{"internalType":"uint256","name":"","type":"uint256"}],"stateMutability":"view","type":"function"}],"evm":{"bytecode":{"linkReferences":{},"object":"608034620003ce57601f90601f19906001600160401b039062002705388190038581018516830184811184821017620003b857839282916040528339602092839181010312620003ce57516001600160a01b03948582169391849003620003ce576200006a620003d3565b92601284527114dbdd5b189bdd5b99141b195919d953919560721b8185015262000093620003d3565b90600582526414d413919560da1b81830152845196848811620003b8576000978854966001978881811c91168015620003ad575b85821014620003995790818784931162000346575b508490878311600114620002e5578b92620002d9575b5050600019600383901b1c191690871b1788555b8251948511620002c55785548681811c91168015620002ba575b83821014620002a6579081858796959493116200024d575b5081938511600114620001e85750508692620001dc575b5050600019600383901b1c191690821b1790555b3315620001c35760068054336001600160a01b03198083168217909355604051959091167f8be0079c531659141344cd1fd0a4f28419497f9722a3daafe3b4186f6b6457e08580a3600a541617600a556009556123119081620003f48239f35b604051631e4fbdf760e01b815260048101839052602490fd5b0151905038806200014f565b869593929193168589528389209389905b82821062000233575050841162000219575b505050811b01905562000163565b015160001960f88460031b161c191690553880806200020b565b8484015186558897909501949384019390810190620001f9565b9091929394508689528289208580880160051c8201928589106200029c575b9188978a9297969594930160051c01915b8281106200028d57505062000138565b8b81558897508991016200027d565b925081926200026c565b634e487b7160e01b89526022600452602489fd5b90607f169062000120565b634e487b7160e01b88526041600452602488fd5b015190503880620000f2565b90848a9416918c8052868d20928d5b888282106200032f575050841162000315575b505050811b01885562000106565b015160001960f88460031b161c1916905538808062000307565b8385015186558d97909501949384019301620002f4565b9091508a8052848b208780850160051c8201928786106200038f575b918b91869594930160051c01915b82811062000380575050620000dc565b8d81558594508b910162000370565b9250819262000362565b634e487b7160e01b8b52602260045260248bfd5b90607f1690620000c7565b634e487b7160e01b600052604160045260246000fd5b600080fd5b60408051919082016001600160401b03811183821017620003b85760405256fe608080604052600436101561001357600080fd5b60003560e01c90816301ffc9a7146119435750806306fdde0314611898578063081812fc1461185a578063095ea7b3146117fb5780632342edc91461174457806323b872dd1461172d578063291c73c3146116d55780634008c95e146115e957806342842e0e146115bb57806352de4ee514611507578063557e6cfe146114de5780636352211e146114ae5780636b48271a1461143a57806370a08231146113e1578063715018a61461138457806372f5806114610dbc5780638da5cb5b14610d9357806395d89b4114610cc45780639df9ce9014610c81578063a22cb46514610c17578063b88d4fde14610ba9578063c87b56dd14610239578063d082e3811461021b578063e985e9c5146101c55763f2fde38b1461013257600080fd5b346101c05760203660031901126101c05761014b6119f6565b610153611e77565b6001600160a01b039081169081156101a757600654826bffffffffffffffffffffffff60a01b821617600655167f8be0079c531659141344cd1fd0a4f28419497f9722a3daafe3b4186f6b6457e0600080a3005b604051631e4fbdf760e01b815260006004820152602490fd5b600080fd5b346101c05760403660031901126101c0576101de6119f6565b6101e6611a0c565b9060018060a01b03809116600052600560205260406000209116600052602052602060ff604060002054166040519015158152f35b346101c05760003660031901126101c0576020600954604051908152f35b346101c0576020806003193601126101c057610b3f60043580600052600283526108ab6101658460018060a01b0361027981604060002054161515611df9565b84600052600782526040600020946040519561029487611abf565b80548752866108b96a102927a71e17ba32bc3a1f60a91b6108ab6103f06102e160046001880154978b88019889526002810154976040810198895260608c60038401541691015201611b19565b9760808d019889526102f288612024565b996102ff8a519e51612024565b9861031f610318670de0b6b3a7640000809b5104612024565b9851612024565b9a5198816000526007835261039661038f6040600020926103856040519561034687611abf565b85548752608061037b60046001890154988b8b01998a5260028101549c60408c019d8e5260038201541660608c015201611b19565b9701968752612024565b9451935104612024565b9451612024565b604051936103d360278683810194660213637b1b59d160cd1b86526103c3815180928786860191016119ae565b8101036007810188520186611af7565b6040519889967f3c7376672077696474683d2234303022206865696768743d223430302220786d838901527f6c6e733d22687474703a2f2f7777772e77332e6f72672f323030302f737667226040890152601f60f91b6060890152651e3232b3399f60d11b60618901527f3c6c696e6561724772616469656e742069643d226267222078313d223025222060678901527f79313d223025222078323d2231303025222079323d2231303025223e0000000060878901527f3c73746f70206f66667365743d22302522207374796c653d2273746f702d636f60a38901527f6c6f723a233636376565613b73746f702d6f7061636974793a3122202f3e000060c38901527f3c73746f70206f66667365743d223130302522207374796c653d2273746f702d60e18901527f636f6c6f723a233736346261323b73746f702d6f7061636974793a3122202f3e610101890152701e17b634b732b0b923b930b234b2b73a1f60791b610121890152661e17b232b3399f60c91b6101328901527f3c726563742077696474683d2234303022206865696768743d223430302220666101398901526f34b6361e913ab9361411b1339491179f60811b6101598901527f3c7465787420783d223230302220793d2235302220746578742d616e63686f726101698901527f3d226d6964646c65222066696c6c3d2277686974652220666f6e742d73697a656101898901527f3d2232342220666f6e742d7765696768743d22626f6c64223e506c65646765206101a98901526927232a1e17ba32bc3a1f60b11b6101c98901527f3c7465787420783d223230302220793d223130302220746578742d616e63686f6101d3890152877f723d226d6964646c65222066696c6c3d2277686974652220666f6e742d73697a96876101f383015267653d223138223e2360c01b61021383015261069261021b9282878594519485930191016119ae565b890190661e17ba32bc3a1f60c91b968780928401527f3c7465787420783d223230302220793d223135302220746578742d616e63686f61022284015288610242840152700329e91189b111f21b0b6b830b4b3b71d1607d1b61026284015261027392610706825180938987850191016119ae565b01918201527f3c7465787420783d223230302220793d223230302220746578742d616e63686f61027a8201528661029a82015266329e911918111f60c91b6102ba8201526107606102c194835193849187850191016119ae565b01918201527f3c7465787420783d223230302220793d223235302220746578742d616e63686f6102cc820152836102ec8201527f653d223134223e506c6564676564206f6e3c2f746578743e000000000000000061030c8201527f3c7465787420783d223230302220793d223238302220746578742d616e63686f6103248201528361034482015266329e91189a111f60c91b61036482015261080c61036b95518093878401906119ae565b01928301527f3c7465787420783d223230302220793d223335302220746578742d616e63686f6103728301526103928201527f653d22313222206f7061636974793d22302e38223e536f756c626f756e64202d6103b28201527f204e6f6e2d7472616e7366657261626c653c2f746578743e00000000000000006103d2820152651e17b9bb339f60d11b6103ea820152036103d0810184520182611af7565b6108b3612168565b906121d8565b93604051988996717b226e616d65223a2022506c65646765202360701b8d8901526108ee8d825192839160328c0191016119ae565b87017f222c20226465736372697074696f6e223a2022536f756c626f756e64204e465460328201527f20726570726573656e74696e67206120706c6564676520746f2063616d706169605282015263033b71d160e51b607282015261095d8d83519384916076850191016119ae565b019371222c202261747472696275746573223a205b60701b60768601527f7b2274726169745f74797065223a202243616d706169676e204944222c20227660888601526730b63ab2911d101160c11b948560a88201526109c78d835193849160b0850191016119ae565b019162089f4b60ea1b928360b08201527f7b2274726169745f74797065223a2022506c6564676520416d6f756e74222c2060b382015269113b30b63ab2911d101160b11b60d3820152610a248d835193849160dd850191016119ae565b019366081493d3889f4b60ca1b60dd8601527f7b2274726169745f74797065223a2022506c656467652044617465222c20227660e486015261010485015261010c93610a798c835193849188850191016119ae565b01928301527f7b2274726169745f74797065223a202243616d706169676e205469746c65222c61010f8301526a10113b30b63ab2911d101160a91b61012f83015261013a91610ad0825180938c86850191016119ae565b019161227d60f01b80928401527f5d2c2022696d616765223a2022646174613a696d6167652f7376672b786d6c3b61013c8401526618985cd94d8d0b60ca1b61015c84015261016392610b2b825180938c87850191016119ae565b019182015203610145810184520182611af7565b90610b91603d60405180947f646174613a6170706c69636174696f6e2f6a736f6e3b6261736536342c00000085830152610b81815180928786860191016119ae565b810103601d810185520183611af7565b610ba56040519282849384528301906119d1565b0390f35b346101c05760803660031901126101c057610bc26119f6565b610bca611a0c565b906044356064359267ffffffffffffffff84116101c057366023850112156101c057610c03610c15943690602481600401359101611bda565b92610c0f838383611c11565b33611ea3565b005b346101c05760403660031901126101c057610c306119f6565b50602435801515036101c05760405162461bcd60e51b815260206004820152601f60248201527f536f756c626f756e643a20417070726f76616c206e6f7420616c6c6f776564006044820152606490fd5b346101c05760203660031901126101c057610c9a6119f6565b610ca2611e77565b600a80546001600160a01b0319166001600160a01b0392909216919091179055005b346101c05760003660031901126101c057604051600060018260015492610cea84611a85565b9283835260209485600182169182600014610d73575050600114610d16575b50610b9192500383611af7565b84915060016000527fb10e2d527612073b26eecdfd717e6a320cf44b4afac2b0732d9fcbe2b7fa0cf6906000915b858310610d5b575050610b91935082010185610d09565b80548389018501528794508693909201918101610d44565b60ff191685820152610b9195151560051b8501019250879150610d099050565b346101c05760003660031901126101c0576006546040516001600160a01b039091168152602090f35b346101c05760803660031901126101c057610dd56119f6565b60643567ffffffffffffffff81116101c057366023820112156101c057610e06903690602481600401359101611bda565b600a546001600160a01b0316330361133f57600954906000198214611329576001820160095560405190610e3982611abf565b602435825260443560208084019182524260408086019182526001600160a01b0388811660608801908152608088019687526000898152600790955291909320955186559251600186015551600285015590516003840180546001600160a01b031916919092161790555180519067ffffffffffffffff821161125357610ec36004840154611a85565b601f81116112e2575b50602090601f8311600114611274576004929160009183611269575b50508160011b916000199060031b1c1916179101555b6001600160a01b038216600090815260086020526040902080546801000000000000000081101561125357610f3891600182018155611a57565b81549060031b9083821b91600019901b1916179055604051610f5981611adb565b600081526001600160a01b0383161561123a576000828152600260205260409020546001600160a01b0316151580611232575b6111ed576000828152600260205260409020546001600160a01b0316806111b3575b6001600160a01b0384166000818152600360209081526040808320805460010190558683526002909152812080546001600160a01b0319168317905584919083907fddf252ad1be2c89b69c2b068fc378daa952ba7f163c4a11628f55a4df523b3ef9080a461119a57823b611063575b506020916040516044358152827fe45c969cab595bc0d20ef6e2d8bd0e5c48f68c312f6ef85ca536b19a99f4a913856024359460018060a01b031693a4604051908152f35b6040516020818061109d630a85bd0160e11b95868352336004840152600060248401528760448401526080606484015260848301906119d1565b038160006001600160a01b0389165af160009181611155575b5061111e57833d15611116573d906110cd82611bbe565b916110db6040519384611af7565b82523d6000602084013e5b8151918261110f57604051633250574960e11b81526001600160a01b0383166004820152602490fd5b9050602001fd5b6060906110e6565b6001600160e01b0319160361113457602061101e565b604051633250574960e11b81526001600160a01b0383166004820152602490fd5b9091506020813d602011611192575b8161117160209383611af7565b810103126101c057516001600160e01b0319811681036101c05790856110b6565b3d9150611164565b6040516339e3563760e11b815260006004820152602490fd5b600460205260406000206bffffffffffffffffffffffff60a01b815416905580600052600360205260406000206000198154019055610fae565b60405162461bcd60e51b815260206004820152601f60248201527f536f756c626f756e643a205472616e73666572206e6f7420616c6c6f776564006044820152606490fd5b506001610f8c565b604051633250574960e11b815260006004820152602490fd5b634e487b7160e01b600052604160045260246000fd5b015190508680610ee8565b90601f198316916004850160005260206000209260005b8181106112ca575091600193918560049694106112b1575b505050811b01910155610efe565b015160001960f88460031b161c191690558680806112a3565b9293602060018192878601518155019501930161128b565b600484016000526020600020601f840160051c810160208510611322575b601f830160051c82018110611316575050610ecc565b60008155600101611300565b5080611300565b634e487b7160e01b600052601160045260246000fd5b60405162461bcd60e51b815260206004820152601d60248201527f4f6e6c7920706c6564676520636f6e74726163742063616e206d696e740000006044820152606490fd5b346101c05760003660031901126101c05761139d611e77565b600680546001600160a01b031981169091556000906001600160a01b03167f8be0079c531659141344cd1fd0a4f28419497f9722a3daafe3b4186f6b6457e08280a3005b346101c05760203660031901126101c0576001600160a01b036114026119f6565b1680156114215760005260036020526020604060002054604051908152f35b6040516322718ad960e21b815260006004820152602490fd5b346101c05760203660031901126101c057600435600052600760205260406000208054610ba5600183015492600281015490611485600460018060a01b036003840154169201611b19565b91604051958695865260208601526040850152606084015260a0608084015260a08301906119d1565b346101c05760203660031901126101c05760206114cc600435611e3c565b6040516001600160a01b039091168152f35b346101c05760003660031901126101c057600a546040516001600160a01b039091168152602090f35b346101c0576020806003193601126101c0576001600160a01b036115296119f6565b1660005260088152604060002060405190818382549182815201908192600052846000209060005b868282106115a757868661156782880383611af7565b604051928392818401908285525180915260408401929160005b82811061159057505050500390f35b835185528695509381019392810192600101611581565b835485529093019260019283019201611551565b346101c057610c156115cc36611a22565b90604051926115da84611adb565b60008452610c0f838383611c11565b346101c0576020806003193601126101c0576004356060608060405161160e81611abf565b60008152600085820152600060408201526000838201520152806000526002825260018060a01b039061164982604060002054161515611df9565b60005260078252610ba560406000206040519261166584611abf565b8154845260018201549185850192835260028101546040860190815261169b600484600385015416936060890194855201611b19565b93608087019485526040519788978189525190880152516040870152516060860152511660808401525160a08084015260c08301906119d1565b346101c05760403660031901126101c0576116ee6119f6565b6001600160a01b03166000908152600860205260409020805460243591908210156101c05760209161171f91611a57565b90546040519160031b1c8152f35b346101c057610c1561173e36611a22565b91611c11565b346101c0576020806003193601126101c0576001600160a01b036117666119f6565b16600052600881526040600020604051808284829454938481520190600052846000209260005b868282106117e557846117a281860382611af7565b600091825b82518410156117dd57818460051b84010151600052600782526001604060002001548101809111611329576001909301926117a7565b604051908152f35b855484526001958601958795509301920161178d565b346101c05760403660031901126101c0576118146119f6565b5060405162461bcd60e51b815260206004820152601f60248201527f536f756c626f756e643a20417070726f76616c206e6f7420616c6c6f776564006044820152606490fd5b346101c05760203660031901126101c05760043561187781611e3c565b506000526004602052602060018060a01b0360406000205416604051908152f35b346101c05760003660031901126101c0576040516000805490826118bb83611a85565b9182825260209360019085600182169182600014610d735750506001146118e95750610b9192500383611af7565b6000808052859250907f290decd9548b62a8d60345a988386fc84ba6bc95484008f6362f93160ef3e5635b85831061192b575050610b91935082010185610d09565b80548389018501528794508693909201918101611914565b346101c05760203660031901126101c0576004359063ffffffff60e01b82168092036101c0576020916380ac58cd60e01b811490811561199d575b811561198c575b5015158152f35b6301ffc9a760e01b14905083611985565b635b5e139f60e01b8114915061197e565b60005b8381106119c15750506000910152565b81810151838201526020016119b1565b906020916119ea815180928185528580860191016119ae565b601f01601f1916010190565b600435906001600160a01b03821682036101c057565b602435906001600160a01b03821682036101c057565b60609060031901126101c0576001600160a01b039060043582811681036101c0579160243590811681036101c0579060443590565b8054821015611a6f5760005260206000200190600090565b634e487b7160e01b600052603260045260246000fd5b90600182811c92168015611ab5575b6020831014611a9f57565b634e487b7160e01b600052602260045260246000fd5b91607f1691611a94565b60a0810190811067ffffffffffffffff82111761125357604052565b6020810190811067ffffffffffffffff82111761125357604052565b90601f8019910116810190811067ffffffffffffffff82111761125357604052565b90604051918260008254611b2c81611a85565b90818452602094600191600181169081600014611b9c5750600114611b5d575b505050611b5b92500383611af7565b565b600090815285812095935091905b818310611b84575050611b5b9350820101388080611b4c565b85548884018501529485019487945091830191611b6b565b92505050611b5b94925060ff191682840152151560051b820101388080611b4c565b67ffffffffffffffff811161125357601f01601f191660200190565b929192611be682611bbe565b91611bf46040519384611af7565b8294818452818301116101c0578281602093846000960137010152565b6001600160a01b03918216929091831561123a5760009282845260209460028652604095838787205416151580611df1575b611dae579084918287526002815284888820541696879133151580611d18575b509060027fddf252ad1be2c89b69c2b068fc378daa952ba7f163c4a11628f55a4df523b3ef9284611ce9575b858352600381528b8320805460010190558683525289812080546001600160a01b0319168517905580a41692838303611cc85750505050565b6064945051926364283d7b60e01b8452600484015260248301526044820152fd5b868352600481528b832080546001600160a01b0319169055848352600381528b83208054600019019055611c8f565b91939450915080611d6d575b15611d3457859291879138611c63565b878688611d51576024915190637e27328960e01b82526004820152fd5b604491519063177e802f60e01b82523360048301526024820152fd5b503387148015611d92575b80611d245750858252600481523385898420541614611d24565b5086825260058152878220338352815260ff8883205416611d78565b60649087519062461bcd60e51b82526004820152601f60248201527f536f756c626f756e643a205472616e73666572206e6f7420616c6c6f776564006044820152fd5b506001611c43565b15611e0057565b60405162461bcd60e51b8152602060048201526014602482015273151bdad95b88191bd95cc81b9bdd08195e1a5cdd60621b6044820152606490fd5b6000818152600260205260409020546001600160a01b0316908115611e5f575090565b60249060405190637e27328960e01b82526004820152fd5b6006546001600160a01b03163303611e8b57565b60405163118cdaa760e01b8152336004820152602490fd5b909192833b611eb4575b5050505050565b604051630a85bd0160e11b8082526001600160a01b039384166004830152938316602482015260448101919091526080606482015260209591909316939091908390611f049060848301906119d1565b039285816000958187895af1849181611fae575b50611f78575050503d600014611f70573d611f3281611bbe565b90611f406040519283611af7565b81528091843d92013e5b80519283611f6b57604051633250574960e11b815260048101849052602490fd5b019050fd5b506060611f4a565b919450915063ffffffff60e01b1603611f9657503880808080611ead565b60249060405190633250574960e11b82526004820152fd5b9091508681813d8311611feb575b611fc68183611af7565b81010312611fe757516001600160e01b031981168103611fe7579038611f18565b8480fd5b503d611fbc565b90611ffc82611bbe565b6120096040519182611af7565b828152809261201a601f1991611bbe565b0190602036910137565b806000917a184f03e93ff9f4daa797ed6e38ed64bf6a1f0100000000000000008082101561215a575b506d04ee2d6d415b85acef81000000008083101561214b575b50662386f26fc100008083101561213c575b506305f5e1008083101561212d575b506127108083101561211e575b50606482101561210e575b600a80921015612104575b6001908160216120bc60018701611ff2565b95860101905b6120ce575b5050505090565b600019019083906f181899199a1a9b1b9c1cb0b131b232b360811b8282061a8353049182156120ff579190826120c2565b6120c7565b91600101916120aa565b919060646002910491019161209f565b60049193920491019138612094565b60089193920491019138612087565b60109193920491019138612078565b60209193920491019138612066565b60409350810491503861204d565b604051906060820182811067ffffffffffffffff82111761125357604052604082527f6768696a6b6c6d6e6f707172737475767778797a303132333435363738392b2f6040837f4142434445464748494a4b4c4d4e4f505152535455565758595a61626364656660208201520152565b9190918051156122c55780519260029160028501809511611329576003948590046001600160fe1b0381168103611329576122189060029694961b611ff2565b926020840192829183518401976020890192835194600085525b8a8110612278575050505060039394959650525106806001146122655760021461225a575090565b603d90600019015390565b50603d9081600019820153600119015390565b836004919b989b019a8b51600190603f9082828260121c16870101518453828282600c1c16870101518385015382828260061c168701015187850153168401015185820153019699612232565b5090506040516122d481611adb565b600081529056fea2646970667358221220adbb6820c48e7bdbca465343773f31a741a89ca53eafdc8d87d41d9a049fe1aa64736f6c63430008180033","opcodes":"PUSH1 0x80 CALLVALUE PUSH3 0x3CE JUMPI PUSH1 0x1F SWAP1 PUSH1 0x1F NOT SWAP1 PUSH1 0x1 PUSH1 0x1 PUSH1 0x40 SHL SUB SWAP1 PUSH3 0x2705 CODESIZE DUP2 SWAP1 SUB DUP6 DUP2 ADD DUP6 AND DUP4 ADD DUP5 DUP2 GT DUP5 DUP3 LT OR PUSH3 0x3B8 JUMPI DUP4 SWAP3 DUP3 SWAP2 PUSH1 0x40 MSTORE DUP4 CODECOPY PUSH1 0x20 SWAP3 DUP4 SWAP2 DUP2 ADD SUB SLT PUSH3 0x3CE JUMPI MLOAD PUSH1 0x1 PUSH1 0x1 PUSH1 0xA0 SHL SUB SWAP5 DUP6 DUP3 AND SWAP4 SWAP2 DUP5 SWAP1 SUB PUSH3 0x3CE JUMPI PUSH3 0x6A PUSH3 0x3D3 JUMP JUMPDEST SWAP3 PUSH1 0x12 DUP5 MSTORE PUSH18 0x14DBDD5B189BDD5B99141B195919D9539195 PUSH1 0x72 SHL DUP2 DUP6 ADD MSTORE PUSH3 0x93 PUSH3 0x3D3 JUMP JUMPDEST SWAP1 PUSH1 0x5 DUP3 MSTORE PUSH5 0x14D4139195 PUSH1 0xDA SHL DUP2 DUP4 ADD MSTORE DUP5 MLOAD SWAP7 DUP5 DUP9 GT PUSH3 0x3B8 JUMPI PUSH1 0x0 SWAP8 DUP9 SLOAD SWAP7 PUSH1 0x1 SWAP8 DUP9 DUP2 DUP2 SHR SWAP2 AND DUP1 ISZERO PUSH3 0x3AD JUMPI JUMPDEST DUP6 DUP3 LT EQ PUSH3 0x399 JUMPI SWAP1 DUP2 DUP8 DUP5 SWAP4 GT PUSH3 0x346 JUMPI JUMPDEST POP DUP5 SWAP1 DUP8 DUP4 GT PUSH1 0x1 EQ PUSH3 0x2E5 JUMPI DUP12 SWAP3 PUSH3 0x2D9 JUMPI JUMPDEST POP POP PUSH1 0x0 NOT PUSH1 0x3 DUP4 SWAP1 SHL SHR NOT AND SWAP1 DUP8 SHL OR DUP9 SSTORE JUMPDEST DUP3 MLOAD SWAP5 DUP6 GT PUSH3 0x2C5 JUMPI DUP6 SLOAD DUP7 DUP2 DUP2 SHR SWAP2 AND DUP1 ISZERO PUSH3 0x2BA JUMPI JUMPDEST DUP4 DUP3 LT EQ PUSH3 0x2A6 JUMPI SWAP1 DUP2 DUP6 DUP8 SWAP7 SWAP6 SWAP5 SWAP4 GT PUSH3 0x24D JUMPI JUMPDEST POP DUP2 SWAP4 DUP6 GT PUSH1 0x1 EQ PUSH3 0x1E8 JUMPI POP POP DUP7 SWAP3 PUSH3 0x1DC JUMPI JUMPDEST POP POP PUSH1 0x0 NOT PUSH1 0x3 DUP4 SWAP1 SHL SHR NOT AND SWAP1 DUP3 SHL OR SWAP1 SSTORE JUMPDEST CALLER ISZERO PUSH3 0x1C3 JUMPI PUSH1 0x6 DUP1 SLOAD CALLER PUSH1 0x1 PUSH1 0x1 PUSH1 0xA0 SHL SUB NOT DUP1 DUP4 AND DUP3 OR SWAP1 SWAP4 SSTORE PUSH1 0x40 MLOAD SWAP6 SWAP1 SWAP2 AND PUSH32 0x8BE0079C531659141344CD1FD0A4F28419497F9722A3DAAFE3B4186F6B6457E0 DUP6 DUP1 LOG3 PUSH1 0xA SLOAD AND OR PUSH1 0xA SSTORE PUSH1 0x9 SSTORE PUSH2 0x2311 SWAP1 DUP2 PUSH3 0x3F4 DUP3 CODECOPY RETURN JUMPDEST PUSH1 0x40 MLOAD PUSH4 0x1E4FBDF7 PUSH1 0xE0 SHL DUP2 MSTORE PUSH1 0x4 DUP2 ADD DUP4 SWAP1 MSTORE PUSH1 0x24 SWAP1 REVERT JUMPDEST ADD MLOAD SWAP1 POP CODESIZE DUP1 PUSH3 0x14F JUMP JUMPDEST DUP7 SWAP6 SWAP4 SWAP3 SWAP2 SWAP4 AND DUP6 DUP10 MSTORE DUP4 DUP10 KECCAK256 SWAP4 DUP10 SWAP1 JUMPDEST DUP3 DUP3 LT PUSH3 0x233 JUMPI POP POP DUP5 GT PUSH3 0x219 JUMPI JUMPDEST POP POP POP DUP2 SHL ADD SWAP1 SSTORE PUSH3 0x163 JUMP JUMPDEST ADD MLOAD PUSH1 0x0 NOT PUSH1 0xF8 DUP5 PUSH1 0x3 SHL AND SHR NOT AND SWAP1 SSTORE CODESIZE DUP1 DUP1 PUSH3 0x20B JUMP JUMPDEST DUP5 DUP5 ADD MLOAD DUP7 SSTORE DUP9 SWAP8 SWAP1 SWAP6 ADD SWAP5 SWAP4 DUP5 ADD SWAP4 SWAP1 DUP2 ADD SWAP1 PUSH3 0x1F9 JUMP JUMPDEST SWAP1 SWAP2 SWAP3 SWAP4 SWAP5 POP DUP7 DUP10 MSTORE DUP3 DUP10 KECCAK256 DUP6 DUP1 DUP9 ADD PUSH1 0x5 SHR DUP3 ADD SWAP3 DUP6 DUP10 LT PUSH3 0x29C JUMPI JUMPDEST SWAP2 DUP9 SWAP8 DUP11 SWAP3 SWAP8 SWAP7 SWAP6 SWAP5 SWAP4 ADD PUSH1 0x5 SHR ADD SWAP2 JUMPDEST DUP3 DUP2 LT PUSH3 0x28D JUMPI POP POP PUSH3 0x138 JUMP JUMPDEST DUP12 DUP2 SSTORE DUP9 SWAP8 POP DUP10 SWAP2 ADD PUSH3 0x27D JUMP JUMPDEST SWAP3 POP DUP2 SWAP3 PUSH3 0x26C JUMP JUMPDEST PUSH4 0x4E487B71 PUSH1 0xE0 SHL DUP10 MSTORE PUSH1 0x22 PUSH1 0x4 MSTORE PUSH1 0x24 DUP10 REVERT JUMPDEST SWAP1 PUSH1 0x7F AND SWAP1 PUSH3 0x120 JUMP JUMPDEST PUSH4 0x4E487B71 PUSH1 0xE0 SHL DUP9 MSTORE PUSH1 0x41 PUSH1 0x4 MSTORE PUSH1 0x24 DUP9 REVERT JUMPDEST ADD MLOAD SWAP1 POP CODESIZE DUP1 PUSH3 0xF2 JUMP JUMPDEST SWAP1 DUP5 DUP11 SWAP5 AND SWAP2 DUP13 DUP1 MSTORE DUP7 DUP14 KECCAK256 SWAP3 DUP14 JUMPDEST DUP9 DUP3 DUP3 LT PUSH3 0x32F JUMPI POP POP DUP5 GT PUSH3 0x315 JUMPI JUMPDEST POP POP POP DUP2 SHL ADD DUP9 SSTORE PUSH3 0x106 JUMP JUMPDEST ADD MLOAD PUSH1 0x0 NOT PUSH1 0xF8 DUP5 PUSH1 0x3 SHL AND SHR NOT AND SWAP1 SSTORE CODESIZE DUP1 DUP1 PUSH3 0x307 JUMP JUMPDEST DUP4 DUP6 ADD MLOAD DUP7 SSTORE DUP14 SWAP8 SWAP1 SWAP6 ADD SWAP5 SWAP4 DUP5 ADD SWAP4 ADD PUSH3 0x2F4 JUMP JUMPDEST SWAP1 SWAP2 POP DUP11 DUP1 MSTORE DUP5 DUP12 KECCAK256 DUP8 DUP1 DUP6 ADD PUSH1 0x5 SHR DUP3 ADD SWAP3 DUP8 DUP7 LT PUSH3 0x38F JUMPI JUMPDEST SWAP2 DUP12 SWAP2 DUP7 SWAP6 SWAP5 SWAP4 ADD PUSH1 0x5 SHR ADD SWAP2 JUMPDEST DUP3 DUP2 LT PUSH3 0x380 JUMPI POP POP PUSH3 0xDC JUMP JUMPDEST DUP14 DUP2 SSTORE DUP6 SWAP5 POP DUP12 SWAP2 ADD PUSH3 0x370 JUMP JUMPDEST SWAP3 POP DUP2 SWAP3 PUSH3 0x362 JUMP JUMPDEST PUSH4 0x4E487B71 PUSH1 0xE0 SHL DUP12 MSTORE PUSH1 0x22 PUSH1 0x4 MSTORE PUSH1 0x24 DUP12 REVERT JUMPDEST SWAP1 PUSH1 0x7F AND SWAP1 PUSH3 0xC7 JUMP JUMPDEST PUSH4 0x4E487B71 PUSH1 0xE0 SHL PUSH1 0x0 MSTORE PUSH1 0x41 PUSH1 0x4 MSTORE PUSH1 0x24 PUSH1 0x0 REVERT JUMPDEST PUSH1 0x0 DUP1 REVERT JUMPDEST PUSH1 0x40 DUP1 MLOAD SWAP2 SWAP1 DUP3 ADD PUSH1 0x1 PUSH1 0x1 PUSH1 0x40 SHL SUB DUP2 GT DUP4 DUP3 LT OR PUSH3 0x3B8 JUMPI PUSH1 0x40 MSTORE JUMP INVALID PUSH1 0x80 DUP1 PUSH1 0x40 MSTORE PUSH1 0x4 CALLDATASIZE LT ISZERO PUSH2 0x13 JUMPI PUSH1 0x0 DUP1 REVERT JUMPDEST PUSH1 0x0 CALLDATALOAD PUSH1 0xE0 SHR SWAP1 DUP2 PUSH4 0x1FFC9A7 EQ PUSH2 0x1943 JUMPI POP DUP1 PUSH4 0x6FDDE03 EQ PUSH2 0x1898 JUMPI DUP1 PUSH4 0x81812FC EQ PUSH2 0x185A JUMPI DUP1 PUSH4 0x95EA7B3 EQ PUSH2 0x17FB JUMPI DUP1 PUSH4 0x2342EDC9 EQ PUSH2 0x1744 JUMPI DUP1 PUSH4 0x23B872DD EQ PUSH2 0x172D JUMPI DUP1 PUSH4 0x291C73C3 EQ PUSH2 0x16D5 JUMPI DUP1 PUSH4 0x4008C95E EQ PUSH2 0x15E9 JUMPI DUP1 PUSH4 0x42842E0E EQ PUSH2 0x15BB JUMPI DUP1 PUSH4 0x52DE4EE5 EQ PUSH2 0x1507 JUMPI DUP1 PUSH4 0x557E6CFE EQ PUSH2 0x14DE JUMPI DUP1 PUSH4 0x6352211E EQ PUSH2 0x14AE JUMPI DUP1 PUSH4 0x6B48271A EQ PUSH2 0x143A JUMPI DUP1 PUSH4 0x70A08231 EQ PUSH2 0x13E1 JUMPI DUP1 PUSH4 0x715018A6 EQ PUSH2 0x1384 JUMPI DUP1 PUSH4 0x72F58061 EQ PUSH2 0xDBC JUMPI DUP1 PUSH4 0x8DA5CB5B EQ PUSH2 0xD93 JUMPI DUP1 PUSH4 0x95D89B41 EQ PUSH2 0xCC4 JUMPI DUP1 PUSH4 0x9DF9CE90 EQ PUSH2 0xC81 JUMPI DUP1 PUSH4 0xA22CB465 EQ PUSH2 0xC17 JUMPI DUP1 PUSH4 0xB88D4FDE EQ PUSH2 0xBA9 JUMPI DUP1 PUSH4 0xC87B56DD EQ PUSH2 0x239 JUMPI DUP1 PUSH4 0xD082E381 EQ PUSH2 0x21B JUMPI DUP1 PUSH4 0xE985E9C5 EQ PUSH2 0x1C5 JUMPI PUSH4 0xF2FDE38B EQ PUSH2 0x132 JUMPI PUSH1 0x0 DUP1 REVERT JUMPDEST CALLVALUE PUSH2 0x1C0 JUMPI PUSH1 0x20 CALLDATASIZE PUSH1 0x3 NOT ADD SLT PUSH2 0x1C0 JUMPI PUSH2 0x14B PUSH2 0x19F6 JUMP JUMPDEST PUSH2 0x153 PUSH2 0x1E77 JUMP JUMPDEST PUSH1 0x1 PUSH1 0x1 PUSH1 0xA0 SHL SUB SWAP1 DUP2 AND SWAP1 DUP2 ISZERO PUSH2 0x1A7 JUMPI PUSH1 0x6 SLOAD DUP3 PUSH12 0xFFFFFFFFFFFFFFFFFFFFFFFF PUSH1 0xA0 SHL DUP3 AND OR PUSH1 0x6 SSTORE AND PUSH32 0x8BE0079C531659141344CD1FD0A4F28419497F9722A3DAAFE3B4186F6B6457E0 PUSH1 0x0 DUP1 LOG3 STOP JUMPDEST PUSH1 0x40 MLOAD PUSH4 0x1E4FBDF7 PUSH1 0xE0 SHL DUP2 MSTORE PUSH1 0x0 PUSH1 0x4 DUP3 ADD MSTORE PUSH1 0x24 SWAP1 REVERT JUMPDEST PUSH1 0x0 DUP1 REVERT JUMPDEST CALLVALUE PUSH2 0x1C0 JUMPI PUSH1 0x40 CALLDATASIZE PUSH1 0x3 NOT ADD SLT PUSH2 0x1C0 JUMPI PUSH2 0x1DE PUSH2 0x19F6 JUMP JUMPDEST PUSH2 0x1E6 PUSH2 0x1A0C JUMP JUMPDEST SWAP1 PUSH1 0x1 DUP1 PUSH1 0xA0 SHL SUB DUP1 SWAP2 AND PUSH1 0x0 MSTORE PUSH1 0x5 PUSH1 0x20 MSTORE PUSH1 0x40 PUSH1 0x0 KECCAK256 SWAP2 AND PUSH1 0x0 MSTORE PUSH1 0x20 MSTORE PUSH1 0x20 PUSH1 0xFF PUSH1 0x40 PUSH1 0x0 KECCAK256 SLOAD AND PUSH1 0x40 MLOAD SWAP1 ISZERO ISZERO DUP2 MSTORE RETURN JUMPDEST CALLVALUE PUSH2 0x1C0 JUMPI PUSH1 0x0 CALLDATASIZE PUSH1 0x3 NOT ADD SLT PUSH2 0x1C0 JUMPI PUSH1 0x20 PUSH1 0x9 SLOAD PUSH1 0x40 MLOAD SWAP1 DUP2 MSTORE RETURN JUMPDEST CALLVALUE PUSH2 0x1C0 JUMPI PUSH1 0x20 DUP1 PUSH1 0x3 NOT CALLDATASIZE ADD SLT PUSH2 0x1C0 JUMPI PUSH2 0xB3F PUSH1 0x4 CALLDATALOAD DUP1 PUSH1 0x0 MSTORE PUSH1 0x2 DUP4 MSTORE PUSH2 0x8AB PUSH2 0x165 DUP5 PUSH1 0x1 DUP1 PUSH1 0xA0 SHL SUB PUSH2 0x279 DUP2 PUSH1 0x40 PUSH1 0x0 KECCAK256 SLOAD AND ISZERO ISZERO PUSH2 0x1DF9 JUMP JUMPDEST DUP5 PUSH1 0x0 MSTORE PUSH1 0x7 DUP3 MSTORE PUSH1 0x40 PUSH1 0x0 KECCAK256 SWAP5 PUSH1 0x40 MLOAD SWAP6 PUSH2 0x294 DUP8 PUSH2 0x1ABF JUMP JUMPDEST DUP1 SLOAD DUP8 MSTORE DUP7 PUSH2 0x8B9 PUSH11 0x102927A71E17BA32BC3A1F PUSH1 0xA9 SHL PUSH2 0x8AB PUSH2 0x3F0 PUSH2 0x2E1 PUSH1 0x4 PUSH1 0x1 DUP9 ADD SLOAD SWAP8 DUP12 DUP9 ADD SWAP9 DUP10 MSTORE PUSH1 0x2 DUP2 ADD SLOAD SWAP8 PUSH1 0x40 DUP2 ADD SWAP9 DUP10 MSTORE PUSH1 0x60 DUP13 PUSH1 0x3 DUP5 ADD SLOAD AND SWAP2 ADD MSTORE ADD PUSH2 0x1B19 JUMP JUMPDEST SWAP8 PUSH1 0x80 DUP14 ADD SWAP9 DUP10 MSTORE PUSH2 0x2F2 DUP9 PUSH2 0x2024 JUMP JUMPDEST SWAP10 PUSH2 0x2FF DUP11 MLOAD SWAP15 MLOAD PUSH2 0x2024 JUMP JUMPDEST SWAP9 PUSH2 0x31F PUSH2 0x318 PUSH8 0xDE0B6B3A7640000 DUP1 SWAP12 MLOAD DIV PUSH2 0x2024 JUMP JUMPDEST SWAP9 MLOAD PUSH2 0x2024 JUMP JUMPDEST SWAP11 MLOAD SWAP9 DUP2 PUSH1 0x0 MSTORE PUSH1 0x7 DUP4 MSTORE PUSH2 0x396 PUSH2 0x38F PUSH1 0x40 PUSH1 0x0 KECCAK256 SWAP3 PUSH2 0x385 PUSH1 0x40 MLOAD SWAP6 PUSH2 0x346 DUP8 PUSH2 0x1ABF JUMP JUMPDEST DUP6 SLOAD DUP8 MSTORE PUSH1 0x80 PUSH2 0x37B PUSH1 0x4 PUSH1 0x1 DUP10 ADD SLOAD SWAP9 DUP12 DUP12 ADD SWAP10 DUP11 MSTORE PUSH1 0x2 DUP2 ADD SLOAD SWAP13 PUSH1 0x40 DUP13 ADD SWAP14 DUP15 MSTORE PUSH1 0x3 DUP3 ADD SLOAD AND PUSH1 0x60 DUP13 ADD MSTORE ADD PUSH2 0x1B19 JUMP JUMPDEST SWAP8 ADD SWAP7 DUP8 MSTORE PUSH2 0x2024 JUMP JUMPDEST SWAP5 MLOAD SWAP4 MLOAD DIV PUSH2 0x2024 JUMP JUMPDEST SWAP5 MLOAD PUSH2 0x2024 JUMP JUMPDEST PUSH1 0x40 MLOAD SWAP4 PUSH2 0x3D3 PUSH1 0x27 DUP7 DUP4 DUP2 ADD SWAP5 PUSH7 0x213637B1B59D1 PUSH1 0xCD SHL DUP7 MSTORE PUSH2 0x3C3 DUP2 MLOAD DUP1 SWAP3 DUP8 DUP7 DUP7 ADD SWAP2 ADD PUSH2 0x19AE JUMP JUMPDEST DUP2 ADD SUB PUSH1 0x7 DUP2 ADD DUP9 MSTORE ADD DUP7 PUSH2 0x1AF7 JUMP JUMPDEST PUSH1 0x40 MLOAD SWAP9 DUP10 SWAP7 PUSH32 0x3C7376672077696474683D2234303022206865696768743D223430302220786D DUP4 DUP10 ADD MSTORE PUSH32 0x6C6E733D22687474703A2F2F7777772E77332E6F72672F323030302F73766722 PUSH1 0x40 DUP10 ADD MSTORE PUSH1 0x1F PUSH1 0xF9 SHL PUSH1 0x60 DUP10 ADD MSTORE PUSH6 0x1E3232B3399F PUSH1 0xD1 SHL PUSH1 0x61 DUP10 ADD MSTORE PUSH32 0x3C6C696E6561724772616469656E742069643D226267222078313D2230252220 PUSH1 0x67 DUP10 ADD MSTORE PUSH32 0x79313D223025222078323D2231303025222079323D2231303025223E00000000 PUSH1 0x87 DUP10 ADD MSTORE PUSH32 0x3C73746F70206F66667365743D22302522207374796C653D2273746F702D636F PUSH1 0xA3 DUP10 ADD MSTORE PUSH32 0x6C6F723A233636376565613B73746F702D6F7061636974793A3122202F3E0000 PUSH1 0xC3 DUP10 ADD MSTORE PUSH32 0x3C73746F70206F66667365743D223130302522207374796C653D2273746F702D PUSH1 0xE1 DUP10 ADD MSTORE PUSH32 0x636F6C6F723A233736346261323B73746F702D6F7061636974793A3122202F3E PUSH2 0x101 DUP10 ADD MSTORE PUSH17 0x1E17B634B732B0B923B930B234B2B73A1F PUSH1 0x79 SHL PUSH2 0x121 DUP10 ADD MSTORE PUSH7 0x1E17B232B3399F PUSH1 0xC9 SHL PUSH2 0x132 DUP10 ADD MSTORE PUSH32 0x3C726563742077696474683D2234303022206865696768743D22343030222066 PUSH2 0x139 DUP10 ADD MSTORE PUSH16 0x34B6361E913AB9361411B1339491179F PUSH1 0x81 SHL PUSH2 0x159 DUP10 ADD MSTORE PUSH32 0x3C7465787420783D223230302220793D2235302220746578742D616E63686F72 PUSH2 0x169 DUP10 ADD MSTORE PUSH32 0x3D226D6964646C65222066696C6C3D2277686974652220666F6E742D73697A65 PUSH2 0x189 DUP10 ADD MSTORE PUSH32 0x3D2232342220666F6E742D7765696768743D22626F6C64223E506C6564676520 PUSH2 0x1A9 DUP10 ADD MSTORE PUSH10 0x27232A1E17BA32BC3A1F PUSH1 0xB1 SHL PUSH2 0x1C9 DUP10 ADD MSTORE PUSH32 0x3C7465787420783D223230302220793D223130302220746578742D616E63686F PUSH2 0x1D3 DUP10 ADD MSTORE DUP8 PUSH32 0x723D226D6964646C65222066696C6C3D2277686974652220666F6E742D73697A SWAP7 DUP8 PUSH2 0x1F3 DUP4 ADD MSTORE PUSH8 0x653D223138223E23 PUSH1 0xC0 SHL PUSH2 0x213 DUP4 ADD MSTORE PUSH2 0x692 PUSH2 0x21B SWAP3 DUP3 DUP8 DUP6 SWAP5 MLOAD SWAP5 DUP6 SWAP4 ADD SWAP2 ADD PUSH2 0x19AE JUMP JUMPDEST DUP10 ADD SWAP1 PUSH7 0x1E17BA32BC3A1F PUSH1 0xC9 SHL SWAP7 DUP8 DUP1 SWAP3 DUP5 ADD MSTORE PUSH32 0x3C7465787420783D223230302220793D223135302220746578742D616E63686F PUSH2 0x222 DUP5 ADD MSTORE DUP9 PUSH2 0x242 DUP5 ADD MSTORE PUSH17 0x329E91189B111F21B0B6B830B4B3B71D1 PUSH1 0x7D SHL PUSH2 0x262 DUP5 ADD MSTORE PUSH2 0x273 SWAP3 PUSH2 0x706 DUP3 MLOAD DUP1 SWAP4 DUP10 DUP8 DUP6 ADD SWAP2 ADD PUSH2 0x19AE JUMP JUMPDEST ADD SWAP2 DUP3 ADD MSTORE PUSH32 0x3C7465787420783D223230302220793D223230302220746578742D616E63686F PUSH2 0x27A DUP3 ADD MSTORE DUP7 PUSH2 0x29A DUP3 ADD MSTORE PUSH7 0x329E911918111F PUSH1 0xC9 SHL PUSH2 0x2BA DUP3 ADD MSTORE PUSH2 0x760 PUSH2 0x2C1 SWAP5 DUP4 MLOAD SWAP4 DUP5 SWAP2 DUP8 DUP6 ADD SWAP2 ADD PUSH2 0x19AE JUMP JUMPDEST ADD SWAP2 DUP3 ADD MSTORE PUSH32 0x3C7465787420783D223230302220793D223235302220746578742D616E63686F PUSH2 0x2CC DUP3 ADD MSTORE DUP4 PUSH2 0x2EC DUP3 ADD MSTORE PUSH32 0x653D223134223E506C6564676564206F6E3C2F746578743E0000000000000000 PUSH2 0x30C DUP3 ADD MSTORE PUSH32 0x3C7465787420783D223230302220793D223238302220746578742D616E63686F PUSH2 0x324 DUP3 ADD MSTORE DUP4 PUSH2 0x344 DUP3 ADD MSTORE PUSH7 0x329E91189A111F PUSH1 0xC9 SHL PUSH2 0x364 DUP3 ADD MSTORE PUSH2 0x80C PUSH2 0x36B SWAP6 MLOAD DUP1 SWAP4 DUP8 DUP5 ADD SWAP1 PUSH2 0x19AE JUMP JUMPDEST ADD SWAP3 DUP4 ADD MSTORE PUSH32 0x3C7465787420783D223230302220793D223335302220746578742D616E63686F PUSH2 0x372 DUP4 ADD MSTORE PUSH2 0x392 DUP3 ADD MSTORE PUSH32 0x653D22313222206F7061636974793D22302E38223E536F756C626F756E64202D PUSH2 0x3B2 DUP3 ADD MSTORE PUSH32 0x204E6F6E2D7472616E7366657261626C653C2F746578743E0000000000000000 PUSH2 0x3D2 DUP3 ADD MSTORE PUSH6 0x1E17B9BB339F PUSH1 0xD1 SHL PUSH2 0x3EA DUP3 ADD MSTORE SUB PUSH2 0x3D0 DUP2 ADD DUP5 MSTORE ADD DUP3 PUSH2 0x1AF7 JUMP JUMPDEST PUSH2 0x8B3 PUSH2 0x2168 JUMP JUMPDEST SWAP1 PUSH2 0x21D8 JUMP JUMPDEST SWAP4 PUSH1 0x40 MLOAD SWAP9 DUP10 SWAP7 PUSH18 0x7B226E616D65223A2022506C656467652023 PUSH1 0x70 SHL DUP14 DUP10 ADD MSTORE PUSH2 0x8EE DUP14 DUP3 MLOAD SWAP3 DUP4 SWAP2 PUSH1 0x32 DUP13 ADD SWAP2 ADD PUSH2 0x19AE JUMP JUMPDEST DUP8 ADD PUSH32 0x222C20226465736372697074696F6E223A2022536F756C626F756E64204E4654 PUSH1 0x32 DUP3 ADD MSTORE PUSH32 0x20726570726573656E74696E67206120706C6564676520746F2063616D706169 PUSH1 0x52 DUP3 ADD MSTORE PUSH4 0x33B71D1 PUSH1 0xE5 SHL PUSH1 0x72 DUP3 ADD MSTORE PUSH2 0x95D DUP14 DUP4 MLOAD SWAP4 DUP5 SWAP2 PUSH1 0x76 DUP6 ADD SWAP2 ADD PUSH2 0x19AE JUMP JUMPDEST ADD SWAP4 PUSH18 0x222C202261747472696275746573223A205B PUSH1 0x70 SHL PUSH1 0x76 DUP7 ADD MSTORE PUSH32 0x7B2274726169745F74797065223A202243616D706169676E204944222C202276 PUSH1 0x88 DUP7 ADD MSTORE PUSH8 0x30B63AB2911D1011 PUSH1 0xC1 SHL SWAP5 DUP6 PUSH1 0xA8 DUP3 ADD MSTORE PUSH2 0x9C7 DUP14 DUP4 MLOAD SWAP4 DUP5 SWAP2 PUSH1 0xB0 DUP6 ADD SWAP2 ADD PUSH2 0x19AE JUMP JUMPDEST ADD SWAP2 PUSH3 0x89F4B PUSH1 0xEA SHL SWAP3 DUP4 PUSH1 0xB0 DUP3 ADD MSTORE PUSH32 0x7B2274726169745F74797065223A2022506C6564676520416D6F756E74222C20 PUSH1 0xB3 DUP3 ADD MSTORE PUSH10 0x113B30B63AB2911D1011 PUSH1 0xB1 SHL PUSH1 0xD3 DUP3 ADD MSTORE PUSH2 0xA24 DUP14 DUP4 MLOAD SWAP4 DUP5 SWAP2 PUSH1 0xDD DUP6 ADD SWAP2 ADD PUSH2 0x19AE JUMP JUMPDEST ADD SWAP4 PUSH7 0x81493D3889F4B PUSH1 0xCA SHL PUSH1 0xDD DUP7 ADD MSTORE PUSH32 0x7B2274726169745F74797065223A2022506C656467652044617465222C202276 PUSH1 0xE4 DUP7 ADD MSTORE PUSH2 0x104 DUP6 ADD MSTORE PUSH2 0x10C SWAP4 PUSH2 0xA79 DUP13 DUP4 MLOAD SWAP4 DUP5 SWAP2 DUP9 DUP6 ADD SWAP2 ADD PUSH2 0x19AE JUMP JUMPDEST ADD SWAP3 DUP4 ADD MSTORE PUSH32 0x7B2274726169745F74797065223A202243616D706169676E205469746C65222C PUSH2 0x10F DUP4 ADD MSTORE PUSH11 0x10113B30B63AB2911D1011 PUSH1 0xA9 SHL PUSH2 0x12F DUP4 ADD MSTORE PUSH2 0x13A SWAP2 PUSH2 0xAD0 DUP3 MLOAD DUP1 SWAP4 DUP13 DUP7 DUP6 ADD SWAP2 ADD PUSH2 0x19AE JUMP JUMPDEST ADD SWAP2 PUSH2 0x227D PUSH1 0xF0 SHL DUP1 SWAP3 DUP5 ADD MSTORE PUSH32 0x5D2C2022696D616765223A2022646174613A696D6167652F7376672B786D6C3B PUSH2 0x13C DUP5 ADD MSTORE PUSH7 0x18985CD94D8D0B PUSH1 0xCA SHL PUSH2 0x15C DUP5 ADD MSTORE PUSH2 0x163 SWAP3 PUSH2 0xB2B DUP3 MLOAD DUP1 SWAP4 DUP13 DUP8 DUP6 ADD SWAP2 ADD PUSH2 0x19AE JUMP JUMPDEST ADD SWAP2 DUP3 ADD MSTORE SUB PUSH2 0x145 DUP2 ADD DUP5 MSTORE ADD DUP3 PUSH2 0x1AF7 JUMP JUMPDEST SWAP1 PUSH2 0xB91 PUSH1 0x3D PUSH1 0x40 MLOAD DUP1 SWAP5 PUSH32 0x646174613A6170706C69636174696F6E2F6A736F6E3B6261736536342C000000 DUP6 DUP4 ADD MSTORE PUSH2 0xB81 DUP2 MLOAD DUP1 SWAP3 DUP8 DUP7 DUP7 ADD SWAP2 ADD PUSH2 0x19AE JUMP JUMPDEST DUP2 ADD SUB PUSH1 0x1D DUP2 ADD DUP6 MSTORE ADD DUP4 PUSH2 0x1AF7 JUMP JUMPDEST PUSH2 0xBA5 PUSH1 0x40 MLOAD SWAP3 DUP3 DUP5 SWAP4 DUP5 MSTORE DUP4 ADD SWAP1 PUSH2 0x19D1 JUMP JUMPDEST SUB SWAP1 RETURN JUMPDEST CALLVALUE PUSH2 0x1C0 JUMPI PUSH1 0x80 CALLDATASIZE PUSH1 0x3 NOT ADD SLT PUSH2 0x1C0 JUMPI PUSH2 0xBC2 PUSH2 0x19F6 JUMP JUMPDEST PUSH2 0xBCA PUSH2 0x1A0C JUMP JUMPDEST SWAP1 PUSH1 0x44 CALLDATALOAD PUSH1 0x64 CALLDATALOAD SWAP3 PUSH8 0xFFFFFFFFFFFFFFFF DUP5 GT PUSH2 0x1C0 JUMPI CALLDATASIZE PUSH1 0x23 DUP6 ADD SLT ISZERO PUSH2 0x1C0 JUMPI PUSH2 0xC03 PUSH2 0xC15 SWAP5 CALLDATASIZE SWAP1 PUSH1 0x24 DUP2 PUSH1 0x4 ADD CALLDATALOAD SWAP2 ADD PUSH2 0x1BDA JUMP JUMPDEST SWAP3 PUSH2 0xC0F DUP4 DUP4 DUP4 PUSH2 0x1C11 JUMP JUMPDEST CALLER PUSH2 0x1EA3 JUMP JUMPDEST STOP JUMPDEST CALLVALUE PUSH2 0x1C0 JUMPI PUSH1 0x40 CALLDATASIZE PUSH1 0x3 NOT ADD SLT PUSH2 0x1C0 JUMPI PUSH2 0xC30 PUSH2 0x19F6 JUMP JUMPDEST POP PUSH1 0x24 CALLDATALOAD DUP1 ISZERO ISZERO SUB PUSH2 0x1C0 JUMPI PUSH1 0x40 MLOAD PUSH3 0x461BCD PUSH1 0xE5 SHL DUP2 MSTORE PUSH1 0x20 PUSH1 0x4 DUP3 ADD MSTORE PUSH1 0x1F PUSH1 0x24 DUP3 ADD MSTORE PUSH32 0x536F756C626F756E643A20417070726F76616C206E6F7420616C6C6F77656400 PUSH1 0x44 DUP3 ADD MSTORE PUSH1 0x64 SWAP1 REVERT JUMPDEST CALLVALUE PUSH2 0x1C0 JUMPI PUSH1 0x20 CALLDATASIZE PUSH1 0x3 NOT ADD SLT PUSH2 0x1C0 JUMPI PUSH2 0xC9A PUSH2 0x19F6 JUMP JUMPDEST PUSH2 0xCA2 PUSH2 0x1E77 JUMP JUMPDEST PUSH1 0xA DUP1 SLOAD PUSH1 0x1 PUSH1 0x1 PUSH1 0xA0 SHL SUB NOT AND PUSH1 0x1 PUSH1 0x1 PUSH1 0xA0 SHL SUB SWAP3 SWAP1 SWAP3 AND SWAP2 SWAP1 SWAP2 OR SWAP1 SSTORE STOP JUMPDEST CALLVALUE PUSH2 0x1C0 JUMPI PUSH1 0x0 CALLDATASIZE PUSH1 0x3 NOT ADD SLT PUSH2 0x1C0 JUMPI PUSH1 0x40 MLOAD PUSH1 0x0 PUSH1 0x1 DUP3 PUSH1 0x1 SLOAD SWAP3 PUSH2 0xCEA DUP5 PUSH2 0x1A85 JUMP JUMPDEST SWAP3 DUP4 DUP4 MSTORE PUSH1 0x20 SWAP5 DUP6 PUSH1 0x1 DUP3 AND SWAP2 DUP3 PUSH1 0x0 EQ PUSH2 0xD73 JUMPI POP POP PUSH1 0x1 EQ PUSH2 0xD16 JUMPI JUMPDEST POP PUSH2 0xB91 SWAP3 POP SUB DUP4 PUSH2 0x1AF7 JUMP JUMPDEST DUP5 SWAP2 POP PUSH1 0x1 PUSH1 0x0 MSTORE PUSH32 0xB10E2D527612073B26EECDFD717E6A320CF44B4AFAC2B0732D9FCBE2B7FA0CF6 SWAP1 PUSH1 0x0 SWAP2 JUMPDEST DUP6 DUP4 LT PUSH2 0xD5B JUMPI POP POP PUSH2 0xB91 SWAP4 POP DUP3 ADD ADD DUP6 PUSH2 0xD09 JUMP JUMPDEST DUP1 SLOAD DUP4 DUP10 ADD DUP6 ADD MSTORE DUP8 SWAP5 POP DUP7 SWAP4 SWAP1 SWAP3 ADD SWAP2 DUP2 ADD PUSH2 0xD44 JUMP JUMPDEST PUSH1 0xFF NOT AND DUP6 DUP3 ADD MSTORE PUSH2 0xB91 SWAP6 ISZERO ISZERO PUSH1 0x5 SHL DUP6 ADD ADD SWAP3 POP DUP8 SWAP2 POP PUSH2 0xD09 SWAP1 POP JUMP JUMPDEST CALLVALUE PUSH2 0x1C0 JUMPI PUSH1 0x0 CALLDATASIZE PUSH1 0x3 NOT ADD SLT PUSH2 0x1C0 JUMPI PUSH1 0x6 SLOAD PUSH1 0x40 MLOAD PUSH1 0x1 PUSH1 0x1 PUSH1 0xA0 SHL SUB SWAP1 SWAP2 AND DUP2 MSTORE PUSH1 0x20 SWAP1 RETURN JUMPDEST CALLVALUE PUSH2 0x1C0 JUMPI PUSH1 0x80 CALLDATASIZE PUSH1 0x3 NOT ADD SLT PUSH2 0x1C0 JUMPI PUSH2 0xDD5 PUSH2 0x19F6 JUMP JUMPDEST PUSH1 0x64 CALLDATALOAD PUSH8 0xFFFFFFFFFFFFFFFF DUP2 GT PUSH2 0x1C0 JUMPI CALLDATASIZE PUSH1 0x23 DUP3 ADD SLT ISZERO PUSH2 0x1C0 JUMPI PUSH2 0xE06 SWAP1 CALLDATASIZE SWAP1 PUSH1 0x24 DUP2 PUSH1 0x4 ADD CALLDATALOAD SWAP2 ADD PUSH2 0x1BDA JUMP JUMPDEST PUSH1 0xA SLOAD PUSH1 0x1 PUSH1 0x1 PUSH1 0xA0 SHL SUB AND CALLER SUB PUSH2 0x133F JUMPI PUSH1 0x9 SLOAD SWAP1 PUSH1 0x0 NOT DUP3 EQ PUSH2 0x1329 JUMPI PUSH1 0x1 DUP3 ADD PUSH1 0x9 SSTORE PUSH1 0x40 MLOAD SWAP1 PUSH2 0xE39 DUP3 PUSH2 0x1ABF JUMP JUMPDEST PUSH1 0x24 CALLDATALOAD DUP3 MSTORE PUSH1 0x44 CALLDATALOAD PUSH1 0x20 DUP1 DUP5 ADD SWAP2 DUP3 MSTORE TIMESTAMP PUSH1 0x40 DUP1 DUP7 ADD SWAP2 DUP3 MSTORE PUSH1 0x1 PUSH1 0x1 PUSH1 0xA0 SHL SUB DUP9 DUP2 AND PUSH1 0x60 DUP9 ADD SWAP1 DUP2 MSTORE PUSH1 0x80 DUP9 ADD SWAP7 DUP8 MSTORE PUSH1 0x0 DUP10 DUP2 MSTORE PUSH1 0x7 SWAP1 SWAP6 MSTORE SWAP2 SWAP1 SWAP4 KECCAK256 SWAP6 MLOAD DUP7 SSTORE SWAP3 MLOAD PUSH1 0x1 DUP7 ADD SSTORE MLOAD PUSH1 0x2 DUP6 ADD SSTORE SWAP1 MLOAD PUSH1 0x3 DUP5 ADD DUP1 SLOAD PUSH1 0x1 PUSH1 0x1 PUSH1 0xA0 SHL SUB NOT AND SWAP2 SWAP1 SWAP3 AND OR SWAP1 SSTORE MLOAD DUP1 MLOAD SWAP1 PUSH8 0xFFFFFFFFFFFFFFFF DUP3 GT PUSH2 0x1253 JUMPI PUSH2 0xEC3 PUSH1 0x4 DUP5 ADD SLOAD PUSH2 0x1A85 JUMP JUMPDEST PUSH1 0x1F DUP2 GT PUSH2 0x12E2 JUMPI JUMPDEST POP PUSH1 0x20 SWAP1 PUSH1 0x1F DUP4 GT PUSH1 0x1 EQ PUSH2 0x1274 JUMPI PUSH1 0x4 SWAP3 SWAP2 PUSH1 0x0 SWAP2 DUP4 PUSH2 0x1269 JUMPI JUMPDEST POP POP DUP2 PUSH1 0x1 SHL SWAP2 PUSH1 0x0 NOT SWAP1 PUSH1 0x3 SHL SHR NOT AND OR SWAP2 ADD SSTORE JUMPDEST PUSH1 0x1 PUSH1 0x1 PUSH1 0xA0 SHL SUB DUP3 AND PUSH1 0x0 SWAP1 DUP2 MSTORE PUSH1 0x8 PUSH1 0x20 MSTORE PUSH1 0x40 SWAP1 KECCAK256 DUP1 SLOAD PUSH9 0x10000000000000000 DUP2 LT ISZERO PUSH2 0x1253 JUMPI PUSH2 0xF38 SWAP2 PUSH1 0x1 DUP3 ADD DUP2 SSTORE PUSH2 0x1A57 JUMP JUMPDEST DUP2 SLOAD SWAP1 PUSH1 0x3 SHL SWAP1 DUP4 DUP3 SHL SWAP2 PUSH1 0x0 NOT SWAP1 SHL NOT AND OR SWAP1 SSTORE PUSH1 0x40 MLOAD PUSH2 0xF59 DUP2 PUSH2 0x1ADB JUMP JUMPDEST PUSH1 0x0 DUP2 MSTORE PUSH1 0x1 PUSH1 0x1 PUSH1 0xA0 SHL SUB DUP4 AND ISZERO PUSH2 0x123A JUMPI PUSH1 0x0 DUP3 DUP2 MSTORE PUSH1 0x2 PUSH1 0x20 MSTORE PUSH1 0x40 SWAP1 KECCAK256 SLOAD PUSH1 0x1 PUSH1 0x1 PUSH1 0xA0 SHL SUB AND ISZERO ISZERO DUP1 PUSH2 0x1232 JUMPI JUMPDEST PUSH2 0x11ED JUMPI PUSH1 0x0 DUP3 DUP2 MSTORE PUSH1 0x2 PUSH1 0x20 MSTORE PUSH1 0x40 SWAP1 KECCAK256 SLOAD PUSH1 0x1 PUSH1 0x1 PUSH1 0xA0 SHL SUB AND DUP1 PUSH2 0x11B3 JUMPI JUMPDEST PUSH1 0x1 PUSH1 0x1 PUSH1 0xA0 SHL SUB DUP5 AND PUSH1 0x0 DUP2 DUP2 MSTORE PUSH1 0x3 PUSH1 0x20 SWAP1 DUP2 MSTORE PUSH1 0x40 DUP1 DUP4 KECCAK256 DUP1 SLOAD PUSH1 0x1 ADD SWAP1 SSTORE DUP7 DUP4 MSTORE PUSH1 0x2 SWAP1 SWAP2 MSTORE DUP2 KECCAK256 DUP1 SLOAD PUSH1 0x1 PUSH1 0x1 PUSH1 0xA0 SHL SUB NOT AND DUP4 OR SWAP1 SSTORE DUP5 SWAP2 SWAP1 DUP4 SWAP1 PUSH32 0xDDF252AD1BE2C89B69C2B068FC378DAA952BA7F163C4A11628F55A4DF523B3EF SWAP1 DUP1 LOG4 PUSH2 0x119A JUMPI DUP3 EXTCODESIZE PUSH2 0x1063 JUMPI JUMPDEST POP PUSH1 0x20 SWAP2 PUSH1 0x40 MLOAD PUSH1 0x44 CALLDATALOAD DUP2 MSTORE DUP3 PUSH32 0xE45C969CAB595BC0D20EF6E2D8BD0E5C48F68C312F6EF85CA536B19A99F4A913 DUP6 PUSH1 0x24 CALLDATALOAD SWAP5 PUSH1 0x1 DUP1 PUSH1 0xA0 SHL SUB AND SWAP4 LOG4 PUSH1 0x40 MLOAD SWAP1 DUP2 MSTORE RETURN JUMPDEST PUSH1 0x40 MLOAD PUSH1 0x20 DUP2 DUP1 PUSH2 0x109D PUSH4 0xA85BD01 PUSH1 0xE1 SHL SWAP6 DUP7 DUP4 MSTORE CALLER PUSH1 0x4 DUP5 ADD MSTORE PUSH1 0x0 PUSH1 0x24 DUP5 ADD MSTORE DUP8 PUSH1 0x44 DUP5 ADD MSTORE PUSH1 0x80 PUSH1 0x64 DUP5 ADD MSTORE PUSH1 0x84 DUP4 ADD SWAP1 PUSH2 0x19D1 JUMP JUMPDEST SUB DUP2 PUSH1 0x0 PUSH1 0x1 PUSH1 0x1 PUSH1 0xA0 SHL SUB DUP10 AND GAS CALL PUSH1 0x0 SWAP2 DUP2 PUSH2 0x1155 JUMPI JUMPDEST POP PUSH2 0x111E JUMPI DUP4 RETURNDATASIZE ISZERO PUSH2 0x1116 JUMPI RETURNDATASIZE SWAP1 PUSH2 0x10CD DUP3 PUSH2 0x1BBE JUMP JUMPDEST SWAP2 PUSH2 0x10DB PUSH1 0x40 MLOAD SWAP4 DUP5 PUSH2 0x1AF7 JUMP JUMPDEST DUP3 MSTORE RETURNDATASIZE PUSH1 0x0 PUSH1 0x20 DUP5 ADD RETURNDATACOPY JUMPDEST DUP2 MLOAD SWAP2 DUP3 PUSH2 0x110F JUMPI PUSH1 0x40 MLOAD PUSH4 0x32505749 PUSH1 0xE1 SHL DUP2 MSTORE PUSH1 0x1 PUSH1 0x1 PUSH1 0xA0 SHL SUB DUP4 AND PUSH1 0x4 DUP3 ADD MSTORE PUSH1 0x24 SWAP1 REVERT JUMPDEST SWAP1 POP PUSH1 0x20 ADD REVERT JUMPDEST PUSH1 0x60 SWAP1 PUSH2 0x10E6 JUMP JUMPDEST PUSH1 0x1 PUSH1 0x1 PUSH1 0xE0 SHL SUB NOT AND SUB PUSH2 0x1134 JUMPI PUSH1 0x20 PUSH2 0x101E JUMP JUMPDEST PUSH1 0x40 MLOAD PUSH4 0x32505749 PUSH1 0xE1 SHL DUP2 MSTORE PUSH1 0x1 PUSH1 0x1 PUSH1 0xA0 SHL SUB DUP4 AND PUSH1 0x4 DUP3 ADD MSTORE PUSH1 0x24 SWAP1 REVERT JUMPDEST SWAP1 SWAP2 POP PUSH1 0x20 DUP2 RETURNDATASIZE PUSH1 0x20 GT PUSH2 0x1192 JUMPI JUMPDEST DUP2 PUSH2 0x1171 PUSH1 0x20 SWAP4 DUP4 PUSH2 0x1AF7 JUMP JUMPDEST DUP2 ADD SUB SLT PUSH2 0x1C0 JUMPI MLOAD PUSH1 0x1 PUSH1 0x1 PUSH1 0xE0 SHL SUB NOT DUP2 AND DUP2 SUB PUSH2 0x1C0 JUMPI SWAP1 DUP6 PUSH2 0x10B6 JUMP JUMPDEST RETURNDATASIZE SWAP2 POP PUSH2 0x1164 JUMP JUMPDEST PUSH1 0x40 MLOAD PUSH4 0x39E35637 PUSH1 0xE1 SHL DUP2 MSTORE PUSH1 0x0 PUSH1 0x4 DUP3 ADD MSTORE PUSH1 0x24 SWAP1 REVERT JUMPDEST PUSH1 0x4 PUSH1 0x20 MSTORE PUSH1 0x40 PUSH1 0x0 KECCAK256 PUSH12 0xFFFFFFFFFFFFFFFFFFFFFFFF PUSH1 0xA0 SHL DUP2 SLOAD AND SWAP1 SSTORE DUP1 PUSH1 0x0 MSTORE PUSH1 0x3 PUSH1 0x20 MSTORE PUSH1 0x40 PUSH1 0x0 KECCAK256 PUSH1 0x0 NOT DUP2 SLOAD ADD SWAP1 SSTORE PUSH2 0xFAE JUMP JUMPDEST PUSH1 0x40 MLOAD PUSH3 0x461BCD PUSH1 0xE5 SHL DUP2 MSTORE PUSH1 0x20 PUSH1 0x4 DUP3 ADD MSTORE PUSH1 0x1F PUSH1 0x24 DUP3 ADD MSTORE PUSH32 0x536F756C626F756E643A205472616E73666572206E6F7420616C6C6F77656400 PUSH1 0x44 DUP3 ADD MSTORE PUSH1 0x64 SWAP1 REVERT JUMPDEST POP PUSH1 0x1 PUSH2 0xF8C JUMP JUMPDEST PUSH1 0x40 MLOAD PUSH4 0x32505749 PUSH1 0xE1 SHL DUP2 MSTORE PUSH1 0x0 PUSH1 0x4 DUP3 ADD MSTORE PUSH1 0x24 SWAP1 REVERT JUMPDEST PUSH4 0x4E487B71 PUSH1 0xE0 SHL PUSH1 0x0 MSTORE PUSH1 0x41 PUSH1 0x4 MSTORE PUSH1 0x24 PUSH1 0x0 REVERT JUMPDEST ADD MLOAD SWAP1 POP DUP7 DUP1 PUSH2 0xEE8 JUMP JUMPDEST SWAP1 PUSH1 0x1F NOT DUP4 AND SWAP2 PUSH1 0x4 DUP6 ADD PUSH1 0x0 MSTORE PUSH1 0x20 PUSH1 0x0 KECCAK256 SWAP3 PUSH1 0x0 JUMPDEST DUP2 DUP2 LT PUSH2 0x12CA JUMPI POP SWAP2 PUSH1 0x1 SWAP4 SWAP2 DUP6 PUSH1 0x4 SWAP7 SWAP5 LT PUSH2 0x12B1 JUMPI JUMPDEST POP POP POP DUP2 SHL ADD SWAP2 ADD SSTORE PUSH2 0xEFE JUMP JUMPDEST ADD MLOAD PUSH1 0x0 NOT PUSH1 0xF8 DUP5 PUSH1 0x3 SHL AND SHR NOT AND SWAP1 SSTORE DUP7 DUP1 DUP1 PUSH2 0x12A3 JUMP JUMPDEST SWAP3 SWAP4 PUSH1 0x20 PUSH1 0x1 DUP2 SWAP3 DUP8 DUP7 ADD MLOAD DUP2 SSTORE ADD SWAP6 ADD SWAP4 ADD PUSH2 0x128B JUMP JUMPDEST PUSH1 0x4 DUP5 ADD PUSH1 0x0 MSTORE PUSH1 0x20 PUSH1 0x0 KECCAK256 PUSH1 0x1F DUP5 ADD PUSH1 0x5 SHR DUP2 ADD PUSH1 0x20 DUP6 LT PUSH2 0x1322 JUMPI JUMPDEST PUSH1 0x1F DUP4 ADD PUSH1 0x5 SHR DUP3 ADD DUP2 LT PUSH2 0x1316 JUMPI POP POP PUSH2 0xECC JUMP JUMPDEST PUSH1 0x0 DUP2 SSTORE PUSH1 0x1 ADD PUSH2 0x1300 JUMP JUMPDEST POP DUP1 PUSH2 0x1300 JUMP JUMPDEST PUSH4 0x4E487B71 PUSH1 0xE0 SHL PUSH1 0x0 MSTORE PUSH1 0x11 PUSH1 0x4 MSTORE PUSH1 0x24 PUSH1 0x0 REVERT JUMPDEST PUSH1 0x40 MLOAD PUSH3 0x461BCD PUSH1 0xE5 SHL DUP2 MSTORE PUSH1 0x20 PUSH1 0x4 DUP3 ADD MSTORE PUSH1 0x1D PUSH1 0x24 DUP3 ADD MSTORE PUSH32 0x4F6E6C7920706C6564676520636F6E74726163742063616E206D696E74000000 PUSH1 0x44 DUP3 ADD MSTORE PUSH1 0x64 SWAP1 REVERT JUMPDEST CALLVALUE PUSH2 0x1C0 JUMPI PUSH1 0x0 CALLDATASIZE PUSH1 0x3 NOT ADD SLT PUSH2 0x1C0 JUMPI PUSH2 0x139D PUSH2 0x1E77 JUMP JUMPDEST PUSH1 0x6 DUP1 SLOAD PUSH1 0x1 PUSH1 0x1 PUSH1 0xA0 SHL SUB NOT DUP2 AND SWAP1 SWAP2 SSTORE PUSH1 0x0 SWAP1 PUSH1 0x1 PUSH1 0x1 PUSH1 0xA0 SHL SUB AND PUSH32 0x8BE0079C531659141344CD1FD0A4F28419497F9722A3DAAFE3B4186F6B6457E0 DUP3 DUP1 LOG3 STOP JUMPDEST CALLVALUE PUSH2 0x1C0 JUMPI PUSH1 0x20 CALLDATASIZE PUSH1 0x3 NOT ADD SLT PUSH2 0x1C0 JUMPI PUSH1 0x1 PUSH1 0x1 PUSH1 0xA0 SHL SUB PUSH2 0x1402 PUSH2 0x19F6 JUMP JUMPDEST AND DUP1 ISZERO PUSH2 0x1421 JUMPI PUSH1 0x0 MSTORE PUSH1 0x3 PUSH1 0x20 MSTORE PUSH1 0x20 PUSH1 0x40 PUSH1 0x0 KECCAK256 SLOAD PUSH1 0x40 MLOAD SWAP1 DUP2 MSTORE RETURN JUMPDEST PUSH1 0x40 MLOAD PUSH4 0x22718AD9 PUSH1 0xE2 SHL DUP2 MSTORE PUSH1 0x0 PUSH1 0x4 DUP3 ADD MSTORE PUSH1 0x24 SWAP1 REVERT JUMPDEST CALLVALUE PUSH2 0x1C0 JUMPI PUSH1 0x20 CALLDATASIZE PUSH1 0x3 NOT ADD SLT PUSH2 0x1C0 JUMPI PUSH1 0x4 CALLDATALOAD PUSH1 0x0 MSTORE PUSH1 0x7 PUSH1 0x20 MSTORE PUSH1 0x40 PUSH1 0x0 KECCAK256 DUP1 SLOAD PUSH2 0xBA5 PUSH1 0x1 DUP4 ADD SLOAD SWAP3 PUSH1 0x2 DUP2 ADD SLOAD SWAP1 PUSH2 0x1485 PUSH1 0x4 PUSH1 0x1 DUP1 PUSH1 0xA0 SHL SUB PUSH1 0x3 DUP5 ADD SLOAD AND SWAP3 ADD PUSH2 0x1B19 JUMP JUMPDEST SWAP2 PUSH1 0x40 MLOAD SWAP6 DUP7 SWAP6 DUP7 MSTORE PUSH1 0x20 DUP7 ADD MSTORE PUSH1 0x40 DUP6 ADD MSTORE PUSH1 0x60 DUP5 ADD MSTORE PUSH1 0xA0 PUSH1 0x80 DUP5 ADD MSTORE PUSH1 0xA0 DUP4 ADD SWAP1 PUSH2 0x19D1 JUMP JUMPDEST CALLVALUE PUSH2 0x1C0 JUMPI PUSH1 0x20 CALLDATASIZE PUSH1 0x3 NOT ADD SLT PUSH2 0x1C0 JUMPI PUSH1 0x20 PUSH2 0x14CC PUSH1 0x4 CALLDATALOAD PUSH2 0x1E3C JUMP JUMPDEST PUSH1 0x40 MLOAD PUSH1 0x1 PUSH1 0x1 PUSH1 0xA0 SHL SUB SWAP1 SWAP2 AND DUP2 MSTORE RETURN JUMPDEST CALLVALUE PUSH2 0x1C0 JUMPI PUSH1 0x0 CALLDATASIZE PUSH1 0x3 NOT ADD SLT PUSH2 0x1C0 JUMPI PUSH1 0xA SLOAD PUSH1 0x40 MLOAD PUSH1 0x1 PUSH1 0x1 PUSH1 0xA0 SHL SUB SWAP1 SWAP2 AND DUP2 MSTORE PUSH1 0x20 SWAP1 RETURN JUMPDEST CALLVALUE PUSH2 0x1C0 JUMPI PUSH1 0x20 DUP1 PUSH1 0x3 NOT CALLDATASIZE ADD SLT PUSH2 0x1C0 JUMPI PUSH1 0x1 PUSH1 0x1 PUSH1 0xA0 SHL SUB PUSH2 0x1529 PUSH2 0x19F6 JUMP JUMPDEST AND PUSH1 0x0 MSTORE PUSH1 0x8 DUP2 MSTORE PUSH1 0x40 PUSH1 0x0 KECCAK256 PUSH1 0x40 MLOAD SWAP1 DUP2 DUP4 DUP3 SLOAD SWAP2 DUP3 DUP2 MSTORE ADD SWAP1 DUP2 SWAP3 PUSH1 0x0 MSTORE DUP5 PUSH1 0x0 KECCAK256 SWAP1 PUSH1 0x0 JUMPDEST DUP7 DUP3 DUP3 LT PUSH2 0x15A7 JUMPI DUP7 DUP7 PUSH2 0x1567 DUP3 DUP9 SUB DUP4 PUSH2 0x1AF7 JUMP JUMPDEST PUSH1 0x40 MLOAD SWAP3 DUP4 SWAP3 DUP2 DUP5 ADD SWAP1 DUP3 DUP6 MSTORE MLOAD DUP1 SWAP2 MSTORE PUSH1 0x40 DUP5 ADD SWAP3 SWAP2 PUSH1 0x0 JUMPDEST DUP3 DUP2 LT PUSH2 0x1590 JUMPI POP POP POP POP SUB SWAP1 RETURN JUMPDEST DUP4 MLOAD DUP6 MSTORE DUP7 SWAP6 POP SWAP4 DUP2 ADD SWAP4 SWAP3 DUP2 ADD SWAP3 PUSH1 0x1 ADD PUSH2 0x1581 JUMP JUMPDEST DUP4 SLOAD DUP6 MSTORE SWAP1 SWAP4 ADD SWAP3 PUSH1 0x1 SWAP3 DUP4 ADD SWAP3 ADD PUSH2 0x1551 JUMP JUMPDEST CALLVALUE PUSH2 0x1C0 JUMPI PUSH2 0xC15 PUSH2 0x15CC CALLDATASIZE PUSH2 0x1A22 JUMP JUMPDEST SWAP1 PUSH1 0x40 MLOAD SWAP3 PUSH2 0x15DA DUP5 PUSH2 0x1ADB JUMP JUMPDEST PUSH1 0x0 DUP5 MSTORE PUSH2 0xC0F DUP4 DUP4 DUP4 PUSH2 0x1C11 JUMP JUMPDEST CALLVALUE PUSH2 0x1C0 JUMPI PUSH1 0x20 DUP1 PUSH1 0x3 NOT CALLDATASIZE ADD SLT PUSH2 0x1C0 JUMPI PUSH1 0x4 CALLDATALOAD PUSH1 0x60 PUSH1 0x80 PUSH1 0x40 MLOAD PUSH2 0x160E DUP2 PUSH2 0x1ABF JUMP JUMPDEST PUSH1 0x0 DUP2 MSTORE PUSH1 0x0 DUP6 DUP3 ADD MSTORE PUSH1 0x0 PUSH1 0x40 DUP3 ADD MSTORE PUSH1 0x0 DUP4 DUP3 ADD MSTORE ADD MSTORE DUP1 PUSH1 0x0 MSTORE PUSH1 0x2 DUP3 MSTORE PUSH1 0x1 DUP1 PUSH1 0xA0 SHL SUB SWAP1 PUSH2 0x1649 DUP3 PUSH1 0x40 PUSH1 0x0 KECCAK256 SLOAD AND ISZERO ISZERO PUSH2 0x1DF9 JUMP JUMPDEST PUSH1 0x0 MSTORE PUSH1 0x7 DUP3 MSTORE PUSH2 0xBA5 PUSH1 0x40 PUSH1 0x0 KECCAK256 PUSH1 0x40 MLOAD SWAP3 PUSH2 0x1665 DUP5 PUSH2 0x1ABF JUMP JUMPDEST DUP2 SLOAD DUP5 MSTORE PUSH1 0x1 DUP3 ADD SLOAD SWAP2 DUP6 DUP6 ADD SWAP3 DUP4 MSTORE PUSH1 0x2 DUP2 ADD SLOAD PUSH1 0x40 DUP7 ADD SWAP1 DUP2 MSTORE PUSH2 0x169B PUSH1 0x4 DUP5 PUSH1 0x3 DUP6 ADD SLOAD AND SWAP4 PUSH1 0x60 DUP10 ADD SWAP5 DUP6 MSTORE ADD PUSH2 0x1B19 JUMP JUMPDEST SWAP4 PUSH1 0x80 DUP8 ADD SWAP5 DUP6 MSTORE PUSH1 0x40 MLOAD SWAP8 DUP9 SWAP8 DUP2 DUP10 MSTORE MLOAD SWAP1 DUP9 ADD MSTORE MLOAD PUSH1 0x40 DUP8 ADD MSTORE MLOAD PUSH1 0x60 DUP7 ADD MSTORE MLOAD AND PUSH1 0x80 DUP5 ADD MSTORE MLOAD PUSH1 0xA0 DUP1 DUP5 ADD MSTORE PUSH1 0xC0 DUP4 ADD SWAP1 PUSH2 0x19D1 JUMP JUMPDEST CALLVALUE PUSH2 0x1C0 JUMPI PUSH1 0x40 CALLDATASIZE PUSH1 0x3 NOT ADD SLT PUSH2 0x1C0 JUMPI PUSH2 0x16EE PUSH2 0x19F6 JUMP JUMPDEST PUSH1 0x1 PUSH1 0x1 PUSH1 0xA0 SHL SUB AND PUSH1 0x0 SWAP1 DUP2 MSTORE PUSH1 0x8 PUSH1 0x20 MSTORE PUSH1 0x40 SWAP1 KECCAK256 DUP1 SLOAD PUSH1 0x24 CALLDATALOAD SWAP2 SWAP1 DUP3 LT ISZERO PUSH2 0x1C0 JUMPI PUSH1 0x20 SWAP2 PUSH2 0x171F SWAP2 PUSH2 0x1A57 JUMP JUMPDEST SWAP1 SLOAD PUSH1 0x40 MLOAD SWAP2 PUSH1 0x3 SHL SHR DUP2 MSTORE RETURN JUMPDEST CALLVALUE PUSH2 0x1C0 JUMPI PUSH2 0xC15 PUSH2 0x173E CALLDATASIZE PUSH2 0x1A22 JUMP JUMPDEST SWAP2 PUSH2 0x1C11 JUMP JUMPDEST CALLVALUE PUSH2 0x1C0 JUMPI PUSH1 0x20 DUP1 PUSH1 0x3 NOT CALLDATASIZE ADD SLT PUSH2 0x1C0 JUMPI PUSH1 0x1 PUSH1 0x1 PUSH1 0xA0 SHL SUB PUSH2 0x1766 PUSH2 0x19F6 JUMP JUMPDEST AND PUSH1 0x0 MSTORE PUSH1 0x8 DUP2 MSTORE PUSH1 0x40 PUSH1 0x0 KECCAK256 PUSH1 0x40 MLOAD DUP1 DUP3 DUP5 DUP3 SWAP5 SLOAD SWAP4 DUP5 DUP2 MSTORE ADD SWAP1 PUSH1 0x0 MSTORE DUP5 PUSH1 0x0 KECCAK256 SWAP3 PUSH1 0x0 JUMPDEST DUP7 DUP3 DUP3 LT PUSH2 0x17E5 JUMPI DUP5 PUSH2 0x17A2 DUP2 DUP7 SUB DUP3 PUSH2 0x1AF7 JUMP JUMPDEST PUSH1 0x0 SWAP2 DUP3 JUMPDEST DUP3 MLOAD DUP5 LT ISZERO PUSH2 0x17DD JUMPI DUP2 DUP5 PUSH1 0x5 SHL DUP5 ADD ADD MLOAD PUSH1 0x0 MSTORE PUSH1 0x7 DUP3 MSTORE PUSH1 0x1 PUSH1 0x40 PUSH1 0x0 KECCAK256 ADD SLOAD DUP2 ADD DUP1 SWAP2 GT PUSH2 0x1329 JUMPI PUSH1 0x1 SWAP1 SWAP4 ADD SWAP3 PUSH2 0x17A7 JUMP JUMPDEST PUSH1 0x40 MLOAD SWAP1 DUP2 MSTORE RETURN JUMPDEST DUP6 SLOAD DUP5 MSTORE PUSH1 0x1 SWAP6 DUP7 ADD SWAP6 DUP8 SWAP6 POP SWAP4 ADD SWAP3 ADD PUSH2 0x178D JUMP JUMPDEST CALLVALUE PUSH2 0x1C0 JUMPI PUSH1 0x40 CALLDATASIZE PUSH1 0x3 NOT ADD SLT PUSH2 0x1C0 JUMPI PUSH2 0x1814 PUSH2 0x19F6 JUMP JUMPDEST POP PUSH1 0x40 MLOAD PUSH3 0x461BCD PUSH1 0xE5 SHL DUP2 MSTORE PUSH1 0x20 PUSH1 0x4 DUP3 ADD MSTORE PUSH1 0x1F PUSH1 0x24 DUP3 ADD MSTORE PUSH32 0x536F756C626F756E643A20417070726F76616C206E6F7420616C6C6F77656400 PUSH1 0x44 DUP3 ADD MSTORE PUSH1 0x64 SWAP1 REVERT JUMPDEST CALLVALUE PUSH2 0x1C0 JUMPI PUSH1 0x20 CALLDATASIZE PUSH1 0x3 NOT ADD SLT PUSH2 0x1C0 JUMPI PUSH1 0x4 CALLDATALOAD PUSH2 0x1877 DUP2 PUSH2 0x1E3C JUMP JUMPDEST POP PUSH1 0x0 MSTORE PUSH1 0x4 PUSH1 0x20 MSTORE PUSH1 0x20 PUSH1 0x1 DUP1 PUSH1 0xA0 SHL SUB PUSH1 0x40 PUSH1 0x0 KECCAK256 SLOAD AND PUSH1 0x40 MLOAD SWAP1 DUP2 MSTORE RETURN JUMPDEST CALLVALUE PUSH2 0x1C0 JUMPI PUSH1 0x0 CALLDATASIZE PUSH1 0x3 NOT ADD SLT PUSH2 0x1C0 JUMPI PUSH1 0x40 MLOAD PUSH1 0x0 DUP1 SLOAD SWAP1 DUP3 PUSH2 0x18BB DUP4 PUSH2 0x1A85 JUMP JUMPDEST SWAP2 DUP3 DUP3 MSTORE PUSH1 0x20 SWAP4 PUSH1 0x1 SWAP1 DUP6 PUSH1 0x1 DUP3 AND SWAP2 DUP3 PUSH1 0x0 EQ PUSH2 0xD73 JUMPI POP POP PUSH1 0x1 EQ PUSH2 0x18E9 JUMPI POP PUSH2 0xB91 SWAP3 POP SUB DUP4 PUSH2 0x1AF7 JUMP JUMPDEST PUSH1 0x0 DUP1 DUP1 MSTORE DUP6 SWAP3 POP SWAP1 PUSH32 0x290DECD9548B62A8D60345A988386FC84BA6BC95484008F6362F93160EF3E563 JUMPDEST DUP6 DUP4 LT PUSH2 0x192B JUMPI POP POP PUSH2 0xB91 SWAP4 POP DUP3 ADD ADD DUP6 PUSH2 0xD09 JUMP JUMPDEST DUP1 SLOAD DUP4 DUP10 ADD DUP6 ADD MSTORE DUP8 SWAP5 POP DUP7 SWAP4 SWAP1 SWAP3 ADD SWAP2 DUP2 ADD PUSH2 0x1914 JUMP JUMPDEST CALLVALUE PUSH2 0x1C0 JUMPI PUSH1 0x20 CALLDATASIZE PUSH1 0x3 NOT ADD SLT PUSH2 0x1C0 JUMPI PUSH1 0x4 CALLDATALOAD SWAP1 PUSH4 0xFFFFFFFF PUSH1 0xE0 SHL DUP3 AND DUP1 SWAP3 SUB PUSH2 0x1C0 JUMPI PUSH1 0x20 SWAP2 PUSH4 0x80AC58CD PUSH1 0xE0 SHL DUP2 EQ SWAP1 DUP2 ISZERO PUSH2 0x199D JUMPI JUMPDEST DUP2 ISZERO PUSH2 0x198C JUMPI JUMPDEST POP ISZERO ISZERO DUP2 MSTORE RETURN JUMPDEST PUSH4 0x1FFC9A7 PUSH1 0xE0 SHL EQ SWAP1 POP DUP4 PUSH2 0x1985 JUMP JUMPDEST PUSH4 0x5B5E139F PUSH1 0xE0 SHL DUP2 EQ SWAP2 POP PUSH2 0x197E JUMP JUMPDEST PUSH1 0x0 JUMPDEST DUP4 DUP2 LT PUSH2 0x19C1 JUMPI POP POP PUSH1 0x0 SWAP2 ADD MSTORE JUMP JUMPDEST DUP2 DUP2 ADD MLOAD DUP4 DUP3 ADD MSTORE PUSH1 0x20 ADD PUSH2 0x19B1 JUMP JUMPDEST SWAP1 PUSH1 0x20 SWAP2 PUSH2 0x19EA DUP2 MLOAD DUP1 SWAP3 DUP2 DUP6 MSTORE DUP6 DUP1 DUP7 ADD SWAP2 ADD PUSH2 0x19AE JUMP JUMPDEST PUSH1 0x1F ADD PUSH1 0x1F NOT AND ADD ADD SWAP1 JUMP JUMPDEST PUSH1 0x4 CALLDATALOAD SWAP1 PUSH1 0x1 PUSH1 0x1 PUSH1 0xA0 SHL SUB DUP3 AND DUP3 SUB PUSH2 0x1C0 JUMPI JUMP JUMPDEST PUSH1 0x24 CALLDATALOAD SWAP1 PUSH1 0x1 PUSH1 0x1 PUSH1 0xA0 SHL SUB DUP3 AND DUP3 SUB PUSH2 0x1C0 JUMPI JUMP JUMPDEST PUSH1 0x60 SWAP1 PUSH1 0x3 NOT ADD SLT PUSH2 0x1C0 JUMPI PUSH1 0x1 PUSH1 0x1 PUSH1 0xA0 SHL SUB SWAP1 PUSH1 0x4 CALLDATALOAD DUP3 DUP2 AND DUP2 SUB PUSH2 0x1C0 JUMPI SWAP2 PUSH1 0x24 CALLDATALOAD SWAP1 DUP2 AND DUP2 SUB PUSH2 0x1C0 JUMPI SWAP1 PUSH1 0x44 CALLDATALOAD SWAP1 JUMP JUMPDEST DUP1 SLOAD DUP3 LT ISZERO PUSH2 0x1A6F JUMPI PUSH1 0x0 MSTORE PUSH1 0x20 PUSH1 0x0 KECCAK256 ADD SWAP1 PUSH1 0x0 SWAP1 JUMP JUMPDEST PUSH4 0x4E487B71 PUSH1 0xE0 SHL PUSH1 0x0 MSTORE PUSH1 0x32 PUSH1 0x4 MSTORE PUSH1 0x24 PUSH1 0x0 REVERT JUMPDEST SWAP1 PUSH1 0x1 DUP3 DUP2 SHR SWAP3 AND DUP1 ISZERO PUSH2 0x1AB5 JUMPI JUMPDEST PUSH1 0x20 DUP4 LT EQ PUSH2 0x1A9F JUMPI JUMP JUMPDEST PUSH4 0x4E487B71 PUSH1 0xE0 SHL PUSH1 0x0 MSTORE PUSH1 0x22 PUSH1 0x4 MSTORE PUSH1 0x24 PUSH1 0x0 REVERT JUMPDEST SWAP2 PUSH1 0x7F AND SWAP2 PUSH2 0x1A94 JUMP JUMPDEST PUSH1 0xA0 DUP2 ADD SWAP1 DUP2 LT PUSH8 0xFFFFFFFFFFFFFFFF DUP3 GT OR PUSH2 0x1253 JUMPI PUSH1 0x40 MSTORE JUMP JUMPDEST PUSH1 0x20 DUP2 ADD SWAP1 DUP2 LT PUSH8 0xFFFFFFFFFFFFFFFF DUP3 GT OR PUSH2 0x1253 JUMPI PUSH1 0x40 MSTORE JUMP JUMPDEST SWAP1 PUSH1 0x1F DUP1 NOT SWAP2 ADD AND DUP2 ADD SWAP1 DUP2 LT PUSH8 0xFFFFFFFFFFFFFFFF DUP3 GT OR PUSH2 0x1253 JUMPI PUSH1 0x40 MSTORE JUMP JUMPDEST SWAP1 PUSH1 0x40 MLOAD SWAP2 DUP3 PUSH1 0x0 DUP3 SLOAD PUSH2 0x1B2C DUP2 PUSH2 0x1A85 JUMP JUMPDEST SWAP1 DUP2 DUP5 MSTORE PUSH1 0x20 SWAP5 PUSH1 0x1 SWAP2 PUSH1 0x1 DUP2 AND SWAP1 DUP2 PUSH1 0x0 EQ PUSH2 0x1B9C JUMPI POP PUSH1 0x1 EQ PUSH2 0x1B5D JUMPI JUMPDEST POP POP POP PUSH2 0x1B5B SWAP3 POP SUB DUP4 PUSH2 0x1AF7 JUMP JUMPDEST JUMP JUMPDEST PUSH1 0x0 SWAP1 DUP2 MSTORE DUP6 DUP2 KECCAK256 SWAP6 SWAP4 POP SWAP2 SWAP1 JUMPDEST DUP2 DUP4 LT PUSH2 0x1B84 JUMPI POP POP PUSH2 0x1B5B SWAP4 POP DUP3 ADD ADD CODESIZE DUP1 DUP1 PUSH2 0x1B4C JUMP JUMPDEST DUP6 SLOAD DUP9 DUP5 ADD DUP6 ADD MSTORE SWAP5 DUP6 ADD SWAP5 DUP8 SWAP5 POP SWAP2 DUP4 ADD SWAP2 PUSH2 0x1B6B JUMP JUMPDEST SWAP3 POP POP POP PUSH2 0x1B5B SWAP5 SWAP3 POP PUSH1 0xFF NOT AND DUP3 DUP5 ADD MSTORE ISZERO ISZERO PUSH1 0x5 SHL DUP3 ADD ADD CODESIZE DUP1 DUP1 PUSH2 0x1B4C JUMP JUMPDEST PUSH8 0xFFFFFFFFFFFFFFFF DUP2 GT PUSH2 0x1253 JUMPI PUSH1 0x1F ADD PUSH1 0x1F NOT AND PUSH1 0x20 ADD SWAP1 JUMP JUMPDEST SWAP3 SWAP2 SWAP3 PUSH2 0x1BE6 DUP3 PUSH2 0x1BBE JUMP JUMPDEST SWAP2 PUSH2 0x1BF4 PUSH1 0x40 MLOAD SWAP4 DUP5 PUSH2 0x1AF7 JUMP JUMPDEST DUP3 SWAP5 DUP2 DUP5 MSTORE DUP2 DUP4 ADD GT PUSH2 0x1C0 JUMPI DUP3 DUP2 PUSH1 0x20 SWAP4 DUP5 PUSH1 0x0 SWAP7 ADD CALLDATACOPY ADD ADD MSTORE JUMP JUMPDEST PUSH1 0x1 PUSH1 0x1 PUSH1 0xA0 SHL SUB SWAP2 DUP3 AND SWAP3 SWAP1 SWAP2 DUP4 ISZERO PUSH2 0x123A JUMPI PUSH1 0x0 SWAP3 DUP3 DUP5 MSTORE PUSH1 0x20 SWAP5 PUSH1 0x2 DUP7 MSTORE PUSH1 0x40 SWAP6 DUP4 DUP8 DUP8 KECCAK256 SLOAD AND ISZERO ISZERO DUP1 PUSH2 0x1DF1 JUMPI JUMPDEST PUSH2 0x1DAE JUMPI SWAP1 DUP5 SWAP2 DUP3 DUP8 MSTORE PUSH1 0x2 DUP2 MSTORE DUP5 DUP9 DUP9 KECCAK256 SLOAD AND SWAP7 DUP8 SWAP2 CALLER ISZERO ISZERO DUP1 PUSH2 0x1D18 JUMPI JUMPDEST POP SWAP1 PUSH1 0x2 PUSH32 0xDDF252AD1BE2C89B69C2B068FC378DAA952BA7F163C4A11628F55A4DF523B3EF SWAP3 DUP5 PUSH2 0x1CE9 JUMPI JUMPDEST DUP6 DUP4 MSTORE PUSH1 0x3 DUP2 MSTORE DUP12 DUP4 KECCAK256 DUP1 SLOAD PUSH1 0x1 ADD SWAP1 SSTORE DUP7 DUP4 MSTORE MSTORE DUP10 DUP2 KECCAK256 DUP1 SLOAD PUSH1 0x1 PUSH1 0x1 PUSH1 0xA0 SHL SUB NOT AND DUP6 OR SWAP1 SSTORE DUP1 LOG4 AND SWAP3 DUP4 DUP4 SUB PUSH2 0x1CC8 JUMPI POP POP POP POP JUMP JUMPDEST PUSH1 0x64 SWAP5 POP MLOAD SWAP3 PUSH4 0x64283D7B PUSH1 0xE0 SHL DUP5 MSTORE PUSH1 0x4 DUP5 ADD MSTORE PUSH1 0x24 DUP4 ADD MSTORE PUSH1 0x44 DUP3 ADD MSTORE REVERT JUMPDEST DUP7 DUP4 MSTORE PUSH1 0x4 DUP2 MSTORE DUP12 DUP4 KECCAK256 DUP1 SLOAD PUSH1 0x1 PUSH1 0x1 PUSH1 0xA0 SHL SUB NOT AND SWAP1 SSTORE DUP5 DUP4 MSTORE PUSH1 0x3 DUP2 MSTORE DUP12 DUP4 KECCAK256 DUP1 SLOAD PUSH1 0x0 NOT ADD SWAP1 SSTORE PUSH2 0x1C8F JUMP JUMPDEST SWAP2 SWAP4 SWAP5 POP SWAP2 POP DUP1 PUSH2 0x1D6D JUMPI JUMPDEST ISZERO PUSH2 0x1D34 JUMPI DUP6 SWAP3 SWAP2 DUP8 SWAP2 CODESIZE PUSH2 0x1C63 JUMP JUMPDEST DUP8 DUP7 DUP9 PUSH2 0x1D51 JUMPI PUSH1 0x24 SWAP2 MLOAD SWAP1 PUSH4 0x7E273289 PUSH1 0xE0 SHL DUP3 MSTORE PUSH1 0x4 DUP3 ADD MSTORE REVERT JUMPDEST PUSH1 0x44 SWAP2 MLOAD SWAP1 PUSH4 0x177E802F PUSH1 0xE0 SHL DUP3 MSTORE CALLER PUSH1 0x4 DUP4 ADD MSTORE PUSH1 0x24 DUP3 ADD MSTORE REVERT JUMPDEST POP CALLER DUP8 EQ DUP1 ISZERO PUSH2 0x1D92 JUMPI JUMPDEST DUP1 PUSH2 0x1D24 JUMPI POP DUP6 DUP3 MSTORE PUSH1 0x4 DUP2 MSTORE CALLER DUP6 DUP10 DUP5 KECCAK256 SLOAD AND EQ PUSH2 0x1D24 JUMP JUMPDEST POP DUP7 DUP3 MSTORE PUSH1 0x5 DUP2 MSTORE DUP8 DUP3 KECCAK256 CALLER DUP4 MSTORE DUP2 MSTORE PUSH1 0xFF DUP9 DUP4 KECCAK256 SLOAD AND PUSH2 0x1D78 JUMP JUMPDEST PUSH1 0x64 SWAP1 DUP8 MLOAD SWAP1 PUSH3 0x461BCD PUSH1 0xE5 SHL DUP3 MSTORE PUSH1 0x4 DUP3 ADD MSTORE PUSH1 0x1F PUSH1 0x24 DUP3 ADD MSTORE PUSH32 0x536F756C626F756E643A205472616E73666572206E6F7420616C6C6F77656400 PUSH1 0x44 DUP3 ADD MSTORE REVERT JUMPDEST POP PUSH1 0x1 PUSH2 0x1C43 JUMP JUMPDEST ISZERO PUSH2 0x1E00 JUMPI JUMP JUMPDEST PUSH1 0x40 MLOAD PUSH3 0x461BCD PUSH1 0xE5 SHL DUP2 MSTORE PUSH1 0x20 PUSH1 0x4 DUP3 ADD MSTORE PUSH1 0x14 PUSH1 0x24 DUP3 ADD MSTORE PUSH20 0x151BDAD95B88191BD95CC81B9BDD08195E1A5CDD PUSH1 0x62 SHL PUSH1 0x44 DUP3 ADD MSTORE PUSH1 0x64 SWAP1 REVERT JUMPDEST PUSH1 0x0 DUP2 DUP2 MSTORE PUSH1 0x2 PUSH1 0x20 MSTORE PUSH1 0x40 SWAP1 KECCAK256 SLOAD PUSH1 0x1 PUSH1 0x1 PUSH1 0xA0 SHL SUB AND SWAP1 DUP2 ISZERO PUSH2 0x1E5F JUMPI POP SWAP1 JUMP JUMPDEST PUSH1 0x24 SWAP1 PUSH1 0x40 MLOAD SWAP1 PUSH4 0x7E273289 PUSH1 0xE0 SHL DUP3 MSTORE PUSH1 0x4 DUP3 ADD MSTORE REVERT JUMPDEST PUSH1 0x6 SLOAD PUSH1 0x1 PUSH1 0x1 PUSH1 0xA0 SHL SUB AND CALLER SUB PUSH2 0x1E8B JUMPI JUMP JUMPDEST PUSH1 0x40 MLOAD PUSH4 0x118CDAA7 PUSH1 0xE0 SHL DUP2 MSTORE CALLER PUSH1 0x4 DUP3 ADD MSTORE PUSH1 0x24 SWAP1 REVERT JUMPDEST SWAP1 SWAP2 SWAP3 DUP4 EXTCODESIZE PUSH2 0x1EB4 JUMPI JUMPDEST POP POP POP POP POP JUMP JUMPDEST PUSH1 0x40 MLOAD PUSH4 0xA85BD01 PUSH1 0xE1 SHL DUP1 DUP3 MSTORE PUSH1 0x1 PUSH1 0x1 PUSH1 0xA0 SHL SUB SWAP4 DUP5 AND PUSH1 0x4 DUP4 ADD MSTORE SWAP4 DUP4 AND PUSH1 0x24 DUP3 ADD MSTORE PUSH1 0x44 DUP2 ADD SWAP2 SWAP1 SWAP2 MSTORE PUSH1 0x80 PUSH1 0x64 DUP3 ADD MSTORE PUSH1 0x20 SWAP6 SWAP2 SWAP1 SWAP4 AND SWAP4 SWAP1 SWAP2 SWAP1 DUP4 SWAP1 PUSH2 0x1F04 SWAP1 PUSH1 0x84 DUP4 ADD SWAP1 PUSH2 0x19D1 JUMP JUMPDEST SUB SWAP3 DUP6 DUP2 PUSH1 0x0 SWAP6 DUP2 DUP8 DUP10 GAS CALL DUP5 SWAP2 DUP2 PUSH2 0x1FAE JUMPI JUMPDEST POP PUSH2 0x1F78 JUMPI POP POP POP RETURNDATASIZE PUSH1 0x0 EQ PUSH2 0x1F70 JUMPI RETURNDATASIZE PUSH2 0x1F32 DUP2 PUSH2 0x1BBE JUMP JUMPDEST SWAP1 PUSH2 0x1F40 PUSH1 0x40 MLOAD SWAP3 DUP4 PUSH2 0x1AF7 JUMP JUMPDEST DUP2 MSTORE DUP1 SWAP2 DUP5 RETURNDATASIZE SWAP3 ADD RETURNDATACOPY JUMPDEST DUP1 MLOAD SWAP3 DUP4 PUSH2 0x1F6B JUMPI PUSH1 0x40 MLOAD PUSH4 0x32505749 PUSH1 0xE1 SHL DUP2 MSTORE PUSH1 0x4 DUP2 ADD DUP5 SWAP1 MSTORE PUSH1 0x24 SWAP1 REVERT JUMPDEST ADD SWAP1 POP REVERT JUMPDEST POP PUSH1 0x60 PUSH2 0x1F4A JUMP JUMPDEST SWAP2 SWAP5 POP SWAP2 POP PUSH4 0xFFFFFFFF PUSH1 0xE0 SHL AND SUB PUSH2 0x1F96 JUMPI POP CODESIZE DUP1 DUP1 DUP1 DUP1 PUSH2 0x1EAD JUMP JUMPDEST PUSH1 0x24 SWAP1 PUSH1 0x40 MLOAD SWAP1 PUSH4 0x32505749 PUSH1 0xE1 SHL DUP3 MSTORE PUSH1 0x4 DUP3 ADD MSTORE REVERT JUMPDEST SWAP1 SWAP2 POP DUP7 DUP2 DUP2 RETURNDATASIZE DUP4 GT PUSH2 0x1FEB JUMPI JUMPDEST PUSH2 0x1FC6 DUP2 DUP4 PUSH2 0x1AF7 JUMP JUMPDEST DUP2 ADD SUB SLT PUSH2 0x1FE7 JUMPI MLOAD PUSH1 0x1 PUSH1 0x1 PUSH1 0xE0 SHL SUB NOT DUP2 AND DUP2 SUB PUSH2 0x1FE7 JUMPI SWAP1 CODESIZE PUSH2 0x1F18 JUMP JUMPDEST DUP5 DUP1 REVERT JUMPDEST POP RETURNDATASIZE PUSH2 0x1FBC JUMP JUMPDEST SWAP1 PUSH2 0x1FFC DUP3 PUSH2 0x1BBE JUMP JUMPDEST PUSH2 0x2009 PUSH1 0x40 MLOAD SWAP2 DUP3 PUSH2 0x1AF7 JUMP JUMPDEST DUP3 DUP2 MSTORE DUP1 SWAP3 PUSH2 0x201A PUSH1 0x1F NOT SWAP2 PUSH2 0x1BBE JUMP JUMPDEST ADD SWAP1 PUSH1 0x20 CALLDATASIZE SWAP2 ADD CALLDATACOPY JUMP JUMPDEST DUP1 PUSH1 0x0 SWAP2 PUSH27 0x184F03E93FF9F4DAA797ED6E38ED64BF6A1F010000000000000000 DUP1 DUP3 LT ISZERO PUSH2 0x215A JUMPI JUMPDEST POP PUSH14 0x4EE2D6D415B85ACEF8100000000 DUP1 DUP4 LT ISZERO PUSH2 0x214B JUMPI JUMPDEST POP PUSH7 0x2386F26FC10000 DUP1 DUP4 LT ISZERO PUSH2 0x213C JUMPI JUMPDEST POP PUSH4 0x5F5E100 DUP1 DUP4 LT ISZERO PUSH2 0x212D JUMPI JUMPDEST POP PUSH2 0x2710 DUP1 DUP4 LT ISZERO PUSH2 0x211E JUMPI JUMPDEST POP PUSH1 0x64 DUP3 LT ISZERO PUSH2 0x210E JUMPI JUMPDEST PUSH1 0xA DUP1 SWAP3 LT ISZERO PUSH2 0x2104 JUMPI JUMPDEST PUSH1 0x1 SWAP1 DUP2 PUSH1 0x21 PUSH2 0x20BC PUSH1 0x1 DUP8 ADD PUSH2 0x1FF2 JUMP JUMPDEST SWAP6 DUP7 ADD ADD SWAP1 JUMPDEST PUSH2 0x20CE JUMPI JUMPDEST POP POP POP POP SWAP1 JUMP JUMPDEST PUSH1 0x0 NOT ADD SWAP1 DUP4 SWAP1 PUSH16 0x181899199A1A9B1B9C1CB0B131B232B3 PUSH1 0x81 SHL DUP3 DUP3 MOD BYTE DUP4 MSTORE8 DIV SWAP2 DUP3 ISZERO PUSH2 0x20FF JUMPI SWAP2 SWAP1 DUP3 PUSH2 0x20C2 JUMP JUMPDEST PUSH2 0x20C7 JUMP JUMPDEST SWAP2 PUSH1 0x1 ADD SWAP2 PUSH2 0x20AA JUMP JUMPDEST SWAP2 SWAP1 PUSH1 0x64 PUSH1 0x2 SWAP2 DIV SWAP2 ADD SWAP2 PUSH2 0x209F JUMP JUMPDEST PUSH1 0x4 SWAP2 SWAP4 SWAP3 DIV SWAP2 ADD SWAP2 CODESIZE PUSH2 0x2094 JUMP JUMPDEST PUSH1 0x8 SWAP2 SWAP4 SWAP3 DIV SWAP2 ADD SWAP2 CODESIZE PUSH2 0x2087 JUMP JUMPDEST PUSH1 0x10 SWAP2 SWAP4 SWAP3 DIV SWAP2 ADD SWAP2 CODESIZE PUSH2 0x2078 JUMP JUMPDEST PUSH1 0x20 SWAP2 SWAP4 SWAP3 DIV SWAP2 ADD SWAP2 CODESIZE PUSH2 0x2066 JUMP JUMPDEST PUSH1 0x40 SWAP4 POP DUP2 DIV SWAP2 POP CODESIZE PUSH2 0x204D JUMP JUMPDEST PUSH1 0x40 MLOAD SWAP1 PUSH1 0x60 DUP3 ADD DUP3 DUP2 LT PUSH8 0xFFFFFFFFFFFFFFFF DUP3 GT OR PUSH2 0x1253 JUMPI PUSH1 0x40 MSTORE PUSH1 0x40 DUP3 MSTORE PUSH32 0x6768696A6B6C6D6E6F707172737475767778797A303132333435363738392B2F PUSH1 0x40 DUP4 PUSH32 0x4142434445464748494A4B4C4D4E4F505152535455565758595A616263646566 PUSH1 0x20 DUP3 ADD MSTORE ADD MSTORE JUMP JUMPDEST SWAP2 SWAP1 SWAP2 DUP1 MLOAD ISZERO PUSH2 0x22C5 JUMPI DUP1 MLOAD SWAP3 PUSH1 0x2 SWAP2 PUSH1 0x2 DUP6 ADD DUP1 SWAP6 GT PUSH2 0x1329 JUMPI PUSH1 0x3 SWAP5 DUP6 SWAP1 DIV PUSH1 0x1 PUSH1 0x1 PUSH1 0xFE SHL SUB DUP2 AND DUP2 SUB PUSH2 0x1329 JUMPI PUSH2 0x2218 SWAP1 PUSH1 0x2 SWAP7 SWAP5 SWAP7 SHL PUSH2 0x1FF2 JUMP JUMPDEST SWAP3 PUSH1 0x20 DUP5 ADD SWAP3 DUP3 SWAP2 DUP4 MLOAD DUP5 ADD SWAP8 PUSH1 0x20 DUP10 ADD SWAP3 DUP4 MLOAD SWAP5 PUSH1 0x0 DUP6 MSTORE JUMPDEST DUP11 DUP2 LT PUSH2 0x2278 JUMPI POP POP POP POP PUSH1 0x3 SWAP4 SWAP5 SWAP6 SWAP7 POP MSTORE MLOAD MOD DUP1 PUSH1 0x1 EQ PUSH2 0x2265 JUMPI PUSH1 0x2 EQ PUSH2 0x225A JUMPI POP SWAP1 JUMP JUMPDEST PUSH1 0x3D SWAP1 PUSH1 0x0 NOT ADD MSTORE8 SWAP1 JUMP JUMPDEST POP PUSH1 0x3D SWAP1 DUP2 PUSH1 0x0 NOT DUP3 ADD MSTORE8 PUSH1 0x1 NOT ADD MSTORE8 SWAP1 JUMP JUMPDEST DUP4 PUSH1 0x4 SWAP2 SWAP12 SWAP9 SWAP12 ADD SWAP11 DUP12 MLOAD PUSH1 0x1 SWAP1 PUSH1 0x3F SWAP1 DUP3 DUP3 DUP3 PUSH1 0x12 SHR AND DUP8 ADD ADD MLOAD DUP5 MSTORE8 DUP3 DUP3 DUP3 PUSH1 0xC SHR AND DUP8 ADD ADD MLOAD DUP4 DUP6 ADD MSTORE8 DUP3 DUP3 DUP3 PUSH1 0x6 SHR AND DUP8 ADD ADD MLOAD DUP8 DUP6 ADD MSTORE8 AND DUP5 ADD ADD MLOAD DUP6 DUP3 ADD MSTORE8 ADD SWAP7 SWAP10 PUSH2 0x2232 JUMP JUMPDEST POP SWAP1 POP PUSH1 0x40 MLOAD PUSH2 0x22D4 DUP2 PUSH2 0x1ADB JUMP JUMPDEST PUSH1 0x0 DUP2 MSTORE SWAP1 JUMP INVALID LOG2 PUSH5 0x6970667358 0x22 SLT KECCAK256 0xAD 0xBB PUSH9 0x20C48E7BDBCA465343 PUSH24 0x3F31A741A89CA53EAFDC8D87D41D9A049FE1AA64736F6C63 NUMBER STOP ADDMOD XOR STOP CALLER "},"methodIdentifiers":{"approve(address,uint256)":"095ea7b3","balanceOf(address)":"70a08231","getApproved(uint256)":"081812fc","getPledgeNFT(uint256)":"4008c95e","getTotalPledgedByUser(address)":"2342edc9","getUserNFTs(address)":"52de4ee5","isApprovedForAll(address,address)":"e985e9c5","mintPledgeSBT(address,uint256,uint256,string)":"72f58061","name()":"06fdde03","owner()":"8da5cb5b","ownerOf(uint256)":"6352211e","pledgeContract()":"557e6cfe","pledgeNFTs(uint256)":"6b48271a","renounceOwnership()":"715018a6","safeTransferFrom(address,address,uint256)":"42842e0e","safeTransferFrom(address,address,uint256,bytes)":"b88d4fde","setApprovalForAll(address,bool)":"a22cb465","setPledgeContract(address)":"9df9ce90","supportsInterface(bytes4)":"01ffc9a7","symbol()":"95d89b41","tokenCounter()":"d082e381","tokenURI(uint256)":"c87b56dd","transferFrom(address,address,uint256)":"23b872dd","transferOwnership(address)":"f2fde38b","userNFTs(address,uint256)":"291c73c3"}}}}}