{
  "_format": "hh-sol-artifact-1",
  "contractName": "PledgeToCreate",
  "sourceName": "contracts/PledgeToCreate.sol",
  "abi": [
    {
      "inputs": [],
      "stateMutability": "nonpayable",
      "type": "constructor"
    },
    {
      "inputs": [
        {
          "internalType": "address",
          "name": "owner",
          "type": "address"
        }
      ],
      "name": "OwnableInvalidOwner",
      "type": "error"
    },
    {
      "inputs": [
        {
          "internalType": "address",
          "name": "account",
          "type": "address"
        }
      ],
      "name": "OwnableUnauthorizedAccount",
      "type": "error"
    },
    {
      "inputs": [],
      "name": "ReentrancyGuardReentrantCall",
      "type": "error"
    },
    {
      "anonymous": false,
      "inputs": [
        {
          "indexed": true,
          "internalType": "uint256",
          "name": "campaignId",
          "type": "uint256"
        },
        {
          "indexed": true,
          "internalType": "address",
          "name": "creator",
          "type": "address"
        },
        {
          "indexed": false,
          "internalType": "string",
          "name": "title",
          "type": "string"
        },
        {
          "indexed": false,
          "internalType": "uint256",
          "name": "goal",
          "type": "uint256"
        },
        {
          "indexed": false,
          "internalType": "uint256",
          "name": "createdAt",
          "type": "uint256"
        }
      ],
      "name": "CampaignCreated",
      "type": "event"
    },
    {
      "anonymous": false,
      "inputs": [
        {
          "indexed": true,
          "internalType": "uint256",
          "name": "campaignId",
          "type": "uint256"
        },
        {
          "indexed": true,
          "internalType": "address",
          "name": "creator",
          "type": "address"
        },
        {
          "indexed": false,
          "internalType": "uint256",
          "name": "amount",
          "type": "uint256"
        }
      ],
      "name": "CampaignWithdrawn",
      "type": "event"
    },
    {
      "anonymous": false,
      "inputs": [
        {
          "indexed": true,
          "internalType": "address",
          "name": "previousOwner",
          "type": "address"
        },
        {
          "indexed": true,
          "internalType": "address",
          "name": "newOwner",
          "type": "address"
        }
      ],
      "name": "OwnershipTransferred",
      "type": "event"
    },
    {
      "anonymous": false,
      "inputs": [
        {
          "indexed": true,
          "internalType": "uint256",
          "name": "campaignId",
          "type": "uint256"
        },
        {
          "indexed": true,
          "internalType": "address",
          "name": "pledger",
          "type": "address"
        },
        {
          "indexed": false,
          "internalType": "uint256",
          "name": "amount",
          "type": "uint256"
        },
        {
          "indexed": false,
          "internalType": "uint256",
          "name": "timestamp",
          "type": "uint256"
        },
        {
          "indexed": false,
          "internalType": "uint256",
          "name": "nftTokenId",
          "type": "uint256"
        }
      ],
      "name": "PledgeMade",
      "type": "event"
    },
    {
      "anonymous": false,
      "inputs": [
        {
          "indexed": false,
          "internalType": "uint256",
          "name": "totalAmount",
          "type": "uint256"
        },
        {
          "indexed": false,
          "internalType": "uint256",
          "name": "recipientCount",
          "type": "uint256"
        }
      ],
      "name": "RevenueDistributed",
      "type": "event"
    },
    {
      "inputs": [],
      "name": "campaignCount",
      "outputs": [
        {
          "internalType": "uint256",
          "name": "",
          "type": "uint256"
        }
      ],
      "stateMutability": "view",
      "type": "function"
    },
    {
      "inputs": [
        {
          "internalType": "uint256",
          "name": "",
          "type": "uint256"
        },
        {
          "internalType": "uint256",
          "name": "",
          "type": "uint256"
        }
      ],
      "name": "campaignPledgers",
      "outputs": [
        {
          "internalType": "address",
          "name": "",
          "type": "address"
        }
      ],
      "stateMutability": "view",
      "type": "function"
    },
    {
      "inputs": [
        {
          "internalType": "uint256",
          "name": "",
          "type": "uint256"
        }
      ],
      "name": "campaigns",
      "outputs": [
        {
          "internalType": "address",
          "name": "creator",
          "type": "address"
        },
        {
          "internalType": "string",
          "name": "title",
          "type": "string"
        },
        {
          "internalType": "string",
          "name": "description",
          "type": "string"
        },
        {
          "internalType": "string",
          "name": "imageUrl",
          "type": "string"
        },
        {
          "internalType": "uint256",
          "name": "goal",
          "type": "uint256"
        },
        {
          "internalType": "uint256",
          "name": "pledged",
          "type": "uint256"
        },
        {
          "internalType": "uint256",
          "name": "createdAt",
          "type": "uint256"
        },
        {
          "internalType": "bool",
          "name": "withdrawn",
          "type": "bool"
        },
        {
          "internalType": "bool",
          "name": "active",
          "type": "bool"
        }
      ],
      "stateMutability": "view",
      "type": "function"
    },
    {
      "inputs": [
        {
          "internalType": "string",
          "name": "_title",
          "type": "string"
        },
        {
          "internalType": "string",
          "name": "_description",
          "type": "string"
        },
        {
          "internalType": "string",
          "name": "_imageUrl",
          "type": "string"
        },
        {
          "internalType": "uint256",
          "name": "_goal",
          "type": "uint256"
        }
      ],
      "name": "createCampaign",
      "outputs": [
        {
          "internalType": "uint256",
          "name": "",
          "type": "uint256"
        }
      ],
      "stateMutability": "nonpayable",
      "type": "function"
    },
    {
      "inputs": [],
      "name": "distributeRevenue",
      "outputs": [],
      "stateMutability": "nonpayable",
      "type": "function"
    },
    {
      "inputs": [],
      "name": "emergencyWithdraw",
      "outputs": [],
      "stateMutability": "nonpayable",
      "type": "function"
    },
    {
      "inputs": [],
      "name": "getAllPledgers",
      "outputs": [
        {
          "internalType": "address[]",
          "name": "",
          "type": "address[]"
        }
      ],
      "stateMutability": "view",
      "type": "function"
    },
    {
      "inputs": [
        {
          "internalType": "uint256",
          "name": "_campaignId",
          "type": "uint256"
        }
      ],
      "name": "getCampaign",
      "outputs": [
        {
          "components": [
            {
              "internalType": "address",
              "name": "creator",
              "type": "address"
            },
            {
              "internalType": "string",
              "name": "title",
              "type": "string"
            },
            {
              "internalType": "string",
              "name": "description",
              "type": "string"
            },
            {
              "internalType": "string",
              "name": "imageUrl",
              "type": "string"
            },
            {
              "internalType": "uint256",
              "name": "goal",
              "type": "uint256"
            },
            {
              "internalType": "uint256",
              "name": "pledged",
              "type": "uint256"
            },
            {
              "internalType": "uint256",
              "name": "createdAt",
              "type": "uint256"
            },
            {
              "internalType": "bool",
              "name": "withdrawn",
              "type": "bool"
            },
            {
              "internalType": "bool",
              "name": "active",
              "type": "bool"
            }
          ],
          "internalType": "struct PledgeToCreate.Campaign",
          "name": "",
          "type": "tuple"
        }
      ],
      "stateMutability": "view",
      "type": "function"
    },
    {
      "inputs": [
        {
          "internalType": "uint256",
          "name": "_campaignId",
          "type": "uint256"
        }
      ],
      "name": "getCampaignPledgers",
      "outputs": [
        {
          "internalType": "address[]",
          "name": "",
          "type": "address[]"
        }
      ],
      "stateMutability": "view",
      "type": "function"
    },
    {
      "inputs": [],
      "name": "getNFTContract",
      "outputs": [
        {
          "internalType": "address",
          "name": "",
          "type": "address"
        }
      ],
      "stateMutability": "view",
      "type": "function"
    },
    {
      "inputs": [
        {
          "internalType": "address",
          "name": "_user",
          "type": "address"
        }
      ],
      "name": "getUserPledges",
      "outputs": [
        {
          "components": [
            {
              "internalType": "address",
              "name": "pledger",
              "type": "address"
            },
            {
              "internalType": "uint256",
              "name": "campaignId",
              "type": "uint256"
            },
            {
              "internalType": "uint256",
              "name": "amount",
              "type": "uint256"
            },
            {
              "internalType": "uint256",
              "name": "timestamp",
              "type": "uint256"
            },
            {
              "internalType": "uint256",
              "name": "nftTokenId",
              "type": "uint256"
            }
          ],
          "internalType": "struct PledgeToCreate.Pledge[]",
          "name": "",
          "type": "tuple[]"
        }
      ],
      "stateMutability": "view",
      "type": "function"
    },
    {
      "inputs": [
        {
          "internalType": "address",
          "name": "_user",
          "type": "address"
        }
      ],
      "name": "getUserTotalPledged",
      "outputs": [
        {
          "internalType": "uint256",
          "name": "",
          "type": "uint256"
        }
      ],
      "stateMutability": "view",
      "type": "function"
    },
    {
      "inputs": [],
      "name": "nftContract",
      "outputs": [
        {
          "internalType": "contract SoulboundPledgeNFT",
          "name": "",
          "type": "address"
        }
      ],
      "stateMutability": "view",
      "type": "function"
    },
    {
      "inputs": [],
      "name": "owner",
      "outputs": [
        {
          "internalType": "address",
          "name": "",
          "type": "address"
        }
      ],
      "stateMutability": "view",
      "type": "function"
    },
    {
      "inputs": [
        {
          "internalType": "uint256",
          "name": "_campaignId",
          "type": "uint256"
        }
      ],
      "name": "pauseCampaign",
      "outputs": [],
      "stateMutability": "nonpayable",
      "type": "function"
    },
    {
      "inputs": [],
      "name": "platformFeePercentage",
      "outputs": [
        {
          "internalType": "uint256",
          "name": "",
          "type": "uint256"
        }
      ],
      "stateMutability": "view",
      "type": "function"
    },
    {
      "inputs": [],
      "name": "platformRevenue",
      "outputs": [
        {
          "internalType": "uint256",
          "name": "",
          "type": "uint256"
        }
      ],
      "stateMutability": "view",
      "type": "function"
    },
    {
      "inputs": [
        {
          "internalType": "uint256",
          "name": "_campaignId",
          "type": "uint256"
        }
      ],
      "name": "pledgeToCampaign",
      "outputs": [],
      "stateMutability": "payable",
      "type": "function"
    },
    {
      "inputs": [],
      "name": "renounceOwnership",
      "outputs": [],
      "stateMutability": "nonpayable",
      "type": "function"
    },
    {
      "inputs": [
        {
          "internalType": "uint256",
          "name": "_feePercentage",
          "type": "uint256"
        }
      ],
      "name": "setPlatformFeePercentage",
      "outputs": [],
      "stateMutability": "nonpayable",
      "type": "function"
    },
    {
      "inputs": [],
      "name": "totalPledged",
      "outputs": [
        {
          "internalType": "uint256",
          "name": "",
          "type": "uint256"
        }
      ],
      "stateMutability": "view",
      "type": "function"
    },
    {
      "inputs": [
        {
          "internalType": "address",
          "name": "",
          "type": "address"
        }
      ],
      "name": "totalPledgedByUser",
      "outputs": [
        {
          "internalType": "uint256",
          "name": "",
          "type": "uint256"
        }
      ],
      "stateMutability": "view",
      "type": "function"
    },
    {
      "inputs": [
        {
          "internalType": "address",
          "name": "newOwner",
          "type": "address"
        }
      ],
      "name": "transferOwnership",
      "outputs": [],
      "stateMutability": "nonpayable",
      "type": "function"
    },
    {
      "inputs": [
        {
          "internalType": "uint256",
          "name": "_campaignId",
          "type": "uint256"
        }
      ],
      "name": "unpauseCampaign",
      "outputs": [],
      "stateMutability": "nonpayable",
      "type": "function"
    },
    {
      "inputs": [
        {
          "internalType": "address",
          "name": "",
          "type": "address"
        },
        {
          "internalType": "uint256",
          "name": "",
          "type": "uint256"
        }
      ],
      "name": "userPledges",
      "outputs": [
        {
          "internalType": "address",
          "name": "pledger",
          "type": "address"
        },
        {
          "internalType": "uint256",
          "name": "campaignId",
          "type": "uint256"
        },
        {
          "internalType": "uint256",
          "name": "amount",
          "type": "uint256"
        },
        {
          "internalType": "uint256",
          "name": "timestamp",
          "type": "uint256"
        },
        {
          "internalType": "uint256",
          "name": "nftTokenId",
          "type": "uint256"
        }
      ],
      "stateMutability": "view",
      "type": "function"
    },
    {
      "inputs": [
        {
          "internalType": "uint256",
          "name": "_campaignId",
          "type": "uint256"
        }
      ],
      "name": "withdrawCampaignFunds",
      "outputs": [],
      "stateMutability": "nonpayable",
      "type": "function"
    },
    {
      "stateMutability": "payable",
      "type": "receive"
    }
  ],
  "bytecode": "0x608080604052346100e85733156100d25760008054336001600160a01b03198083168217845560405190936001600160a01b039390929084167f8be0079c531659141344cd1fd0a4f28419497f9722a3daafe3b4186f6b6457e08480a3600180556101f4600955612705818101906001600160401b038211838310176100be576020918391611d0b833930815203019082f09081156100b257501690600a541617600a55604051611c1d90816100ee8239f35b604051903d90823e3d90fd5b634e487b7160e01b84526041600452602484fd5b631e4fbdf760e01b815260006004820152602490fd5b600080fdfe6080604052600436101561002a575b361561001957600080fd5b61002534600754611ae1565b600755005b60e0600035811c90816305e3917f146115a457816314169e2a146113da578163141961bc1461130357816318ea71cf146111e157816324048ba1146111c357816327d4af0114610e9d5781632b1f4ad6146103245781632d07953a14610cff578163431f9def1461052157816343a19a6514610cb65781634a15ef921461070c57816355468ba4146106ee5781635598f8cc1461055b575080636feb45be14610521578063715018a6146104c85780637274e30d146104aa57806379fe3be2146104275780638333903e146103c05780638da5cb5b14610397578063934c0fed1461036b578063cdd78cfc1461034d578063d56d229d14610324578063db2e21bc146102a4578063de99347a1461025f578063e0d99f69146101de5763f2fde38b0361000e57346101d95760203660031901126101d95761016961179e565b610171611b24565b6001600160a01b039081169081156101c057600054826001600160601b0360a01b821617600055167f8be0079c531659141344cd1fd0a4f28419497f9722a3daafe3b4186f6b6457e0600080a3005b604051631e4fbdf760e01b815260006004820152602490fd5b600080fd5b346101d95760403660031901126101d9576101f761179e565b6024359060018060a01b038091166000526003602052604060002080548310156101d95760a0926102279161185c565b509081541690600181015490600281015460046003830154920154926040519485526020850152604084015260608301526080820152f35b346101d95760203660031901126101d95760043561027b611b24565b6102886006548210611878565b6000908152600260205260409020600701805461ff0019169055005b346101d95760003660031901126101d9576102bd611b24565b60008080804760018060a01b038254165af16102d76118c4565b50156102df57005b60405162461bcd60e51b815260206004820152601960248201527f456d657267656e6379207769746864726177206661696c6564000000000000006044820152606490fd5b346101d95760003660031901126101d957600a546040516001600160a01b039091168152602090f35b346101d95760003660031901126101d9576020600954604051908152f35b346101d95760003660031901126101d95761039361038761191b565b60405191829182611817565b0390f35b346101d95760003660031901126101d9576000546040516001600160a01b039091168152602090f35b346101d95760203660031901126101d9576004356103dc611b24565b6103e881116103ea57600955005b60405162461bcd60e51b81526020600482015260156024820152744665652063616e6e6f74206578636565642031302560581b6044820152606490fd5b346101d9576020806003193601126101d9576004356104496006548210611878565b60005260046020526040600020906040519081602084549182815201936000526020600020916000905b82821061048a576103938561038781890382611697565b83546001600160a01b031686529485019460019384019390910190610473565b346101d95760003660031901126101d9576020600654604051908152f35b346101d95760003660031901126101d9576104e1611b24565b600080546001600160a01b0319811682556001600160a01b03167f8be0079c531659141344cd1fd0a4f28419497f9722a3daafe3b4186f6b6457e08280a3005b346101d95760203660031901126101d9576001600160a01b0361054261179e565b1660005260056020526020604060002054604051908152f35b346101d9576020806003193601126101d9576004356040519161057d8361167a565b6000835260609182828501528260408501528280850152608084016000905260a084016000905260c0840160009052848401600090526101008094016000905260065481106105cb90611878565b600052600281526040600020604051936105e48561167a565b81546001600160a01b03908116865295610600600184016116b9565b86850190815290610613600285016116b9565b6040880190815293610627600382016116b9565b87890190815260048201549760808a0198895260058301549160a08b0192835260068401549360c08c019485526007015497858c019660ff8a1615158852888d019960081c60ff1615158a528a6040519e8f9e8f9d8e525116908c0152516101206040819c01526101408d0161069c9161175e565b9051908c601f199485828403019101526106b59161175e565b9051918b82030160808c01526106ca9161175e565b975160a08a01525160c0890152519087015251151590850152511515908301520390f35b346101d95760003660031901126101d9576020600854604051908152f35b346101d95760803660031901126101d95760043567ffffffffffffffff81116101d95761073d9036906004016117d0565b9060243567ffffffffffffffff81116101d95761075e9036906004016117d0565b9160443567ffffffffffffffff81116101d95761077f9036906004016117d0565b9160643515610c7157815115610c34576006549261079c8461190c565b600655604051946107ac8661167a565b338652836020870152604086015260608501526064356080850152600060a08501524260c0850152600081850152600161010085015282600052600260205260406000209360018060a01b038151166001600160601b0360a01b865416178555602081015180519067ffffffffffffffff8211610a885781906108326001890154611624565b601f8111610be1575b50602090601f8311600114610b7457600092610b69575b50508160011b916000199060031b1c19161760018601555b604081015180519067ffffffffffffffff8211610a885781906108906002890154611624565b601f8111610b16575b50602090601f8311600114610aa957600092610a9e575b50508160011b916000199060031b1c19161760028601555b606081015194855167ffffffffffffffff8111610a88576108ec6003830154611624565b96601f8811610a41575b602097508790601f83116001146109d0576007939291600091836109c5575b50508160011b916000199060031b1c19161760038201555b6080830151600482015560a0830151600582015560c08301516006820155019181015115159060ff61ff006101008554930151151560081b1692169061ffff191617179055817fdc26653af5b99b2da33e2ad69ee6600d9aeccc82b034501db4338309615ca2386109a96040519360608552606085019061175e565b92606435868201524260408201528033940390a3604051908152f35b015190508980610915565b9060038401600052886000209160005b601f1985168110610a2a575091839160019360079695601f19811610610a11575b505050811b01600382015561092d565b015160001960f88460031b161c19169055898080610a01565b91928a6001819286850151815501940192016109e0565b600383016000526020600020601f830160051c810160208410610a81575b601f8a0160051c82018110610a755750506108f6565b60008155600101610a5f565b5080610a5f565b634e487b7160e01b600052604160045260246000fd5b0151905087806108b0565b600289016000908152602081209350601f198516905b818110610afe5750908460019594939210610ae5575b505050811b0160028601556108c8565b015160001960f88460031b161c19169055878080610ad5565b92936020600181928786015181550195019301610abf565b909150600288016000526020600020601f840160051c810160208510610b62575b90849392915b601f830160051c82018110610b53575050610899565b60008155859450600101610b3d565b5080610b37565b015190508780610852565b600189016000908152602081209350601f198516905b818110610bc95750908460019594939210610bb0575b505050811b01600186015561086a565b015160001960f88460031b161c19169055878080610ba0565b92936020600181928786015181550195019301610b8a565b909150600188016000526020600020601f840160051c810160208510610c2d575b90849392915b601f830160051c82018110610c1e57505061083b565b60008155859450600101610c08565b5080610c02565b60405162461bcd60e51b81526020600482015260156024820152745469746c652063616e6e6f7420626520656d70747960581b6044820152606490fd5b60405162461bcd60e51b815260206004820152601b60248201527f476f616c206d7573742062652067726561746572207468616e203000000000006044820152606490fd5b346101d95760203660031901126101d957600435610cd2611b24565b610cdf6006548210611878565b6000908152600260205260409020600701805461ff001916610100179055005b346101d95760003660031901126101d957610d18611b24565b610d20611aee565b6007548015610e585760089060085415610e1d576000600755610d4161191b565b9060009060005b8351811015610de7576001600160a01b03610d638286611b50565b511680600052600560205260406000205480610d84575b5050600101610d48565b610d8e9084611b11565b8654908115610dd15704908115610d7a57600080809381935af1610db06118c4565b50610dbd575b8580610d7a565b91610dc960019161190c565b929050610db6565b634e487b7160e01b600052601260045260246000fd5b7ff2838e4b541f90d41a1076a560d75e948f7d1008e72118a655568626a30b451f6040838582519182526020820152a160018055005b60405162461bcd60e51b8152602060048201526013602482015272139bc81c1b195919d95cc81b585919481e595d606a1b6044820152606490fd5b60405162461bcd60e51b815260206004820152601860248201527f4e6f20726576656e756520746f206469737472696275746500000000000000006044820152606490fd5b6020806003193601126101d957600435610eb5611aee565b610ec26006548210611878565b3415611172578060005260028252604060002091600783015460ff8160081c16156111345760ff166110f157612710610efd60095434611b11565b0490813403933485116110db57600181610f2f6000956005610f5f9501610f258a8254611ae1565b9055600754611ae1565b600755610f3e87600854611ae1565b6008553385526005845260408520610f57888254611ae1565b9055016116b9565b81610fa760018060a01b039283600a5416906040519687809481936372f5806160e01b83523360048401528b60248401528c604484015260806064840152608483019061175e565b03925af19283156110cf576000936110a0575b503360005260038252604060002060405190610fd58261165e565b33825283820186815260408301888152606084019142835260808501938885528054600160401b811015610a88576110129160018201815561185c565b96909661108a5760049551166001600160601b0360a01b8754161786555160018601555160028501555160038401555191015561104e83611b64565b604051938452429084015260408301527fbd1b2441d32a88714c85417fe59603bc1e2f99fc6de5568f6994155bd583f37a60603393a360018055005b634e487b7160e01b600052600060045260246000fd5b9092508181813d83116110c8575b6110b88183611697565b810103126101d957519185610fba565b503d6110ae565b6040513d6000823e3d90fd5b634e487b7160e01b600052601160045260246000fd5b6064906040519062461bcd60e51b825280600483015260248201527f43616d706169676e2066756e647320616c72656164792077697468647261776e6044820152fd5b60405162461bcd60e51b815260048101839052601660248201527543616d706169676e206973206e6f742061637469766560501b6044820152606490fd5b60405162461bcd60e51b8152600481018390526024808201527f506c6564676520616d6f756e74206d75737420626520677265617465722074686044820152630616e20360e41b6064820152608490fd5b346101d95760003660031901126101d9576020600754604051908152f35b346101d9576020806003193601126101d9576001600160a01b03908161120561179e565b16600052600390600381526040600020908154611221816118f4565b9361122f6040519586611697565b81855260009384528284208386019491855b8484106112b257505050505060405192818401908285525180915260408401929160005b8281106112725785850386f35b8351805188168652808301518684015260408082015190870152606080820151908701526080908101519086015260a09094019392810192600101611265565b60058660019260409a989a516112c78161165e565b8c875416815284870154838201526002870154604082015285870154606082015260048701546080820152815201930193019291969496611241565b346101d95760203660031901126101d957600435600090815260026020526040902080546001600160a01b03169060ff61133f600183016116b9565b9361134c600284016116b9565b90611359600385016116b9565b936004810154946113b16005830154916113a360076006860154950154966113956040519c8d809d6020610120928392815201528d019061175e565b908b820360408d015261175e565b9089820360608b015261175e565b95608088015260a087015260c086015282821615159085015260081c1615156101008301520390f35b346101d9576020806003193601126101d9576004356113f7611aee565b6114046006548210611878565b6000818152600283526040902080546001600160a01b0390811693913385900361155f57600781019485549560ff871661151a57600583015496600484015488106114d557600088819482946001849560ff19161790555af16114656118c4565b501561149e575460405194855216927f076f7a439d190ed0f7882eacff83199cda95f20b1cf940a11192a967e6e7cdcf9190a360018055005b60405162461bcd60e51b815260048101849052600f60248201526e151c985b9cd9995c8819985a5b1959608a1b6044820152606490fd5b60405162461bcd60e51b815260048101879052601960248201527f43616d706169676e20676f616c206e6f742072656163686564000000000000006044820152606490fd5b60405162461bcd60e51b815260048101869052601760248201527f46756e647320616c72656164792077697468647261776e0000000000000000006044820152606490fd5b60405162461bcd60e51b815260048101849052601960248201527f4f6e6c792063726561746f722063616e207769746864726177000000000000006044820152606490fd5b346101d95760403660031901126101d9576024356004356000526004602052604060002080548210156101d9576020916115dd916115f6565b905460405160039290921b1c6001600160a01b03168152f35b805482101561160e5760005260206000200190600090565b634e487b7160e01b600052603260045260246000fd5b90600182811c92168015611654575b602083101461163e57565b634e487b7160e01b600052602260045260246000fd5b91607f1691611633565b60a0810190811067ffffffffffffffff821117610a8857604052565b610120810190811067ffffffffffffffff821117610a8857604052565b90601f8019910116810190811067ffffffffffffffff821117610a8857604052565b906040519182600082546116cc81611624565b9081845260209460019160018116908160001461173c57506001146116fd575b5050506116fb92500383611697565b565b600090815285812095935091905b8183106117245750506116fb93508201013880806116ec565b8554888401850152948501948794509183019161170b565b925050506116fb94925060ff191682840152151560051b8201013880806116ec565b919082519283825260005b84811061178a575050826000602080949584010152601f8019910116010190565b602081830181015184830182015201611769565b600435906001600160a01b03821682036101d957565b67ffffffffffffffff8111610a8857601f01601f191660200190565b81601f820112156101d9578035906117e7826117b4565b926117f56040519485611697565b828452602083830101116101d957816000926020809301838601378301015290565b602090602060408183019282815285518094520193019160005b82811061183f575050505090565b83516001600160a01b031685529381019392810192600101611831565b805482101561160e576000526005602060002091020190600090565b1561187f57565b60405162461bcd60e51b815260206004820152601760248201527f43616d706169676e20646f6573206e6f742065786973740000000000000000006044820152606490fd5b3d156118ef573d906118d5826117b4565b916118e36040519384611697565b82523d6000602084013e565b606090565b67ffffffffffffffff8111610a885760051b60200190565b60001981146110db5760010190565b60409060405191617d20830183811067ffffffffffffffff821117610a88576040526103e8808452602091617d0036848701376000918290600654905b8183106119c9575050505061196c816118f4565b9161197a6040519384611697565b818352601f19611989836118f4565b0190369084013760005b8181106119a1575090925050565b6001906001600160a01b036119b68288611b50565b51166119c28286611b50565b5201611993565b91959092969394866000526004815287600020958851808884829a5493848152019060005284600020926000905b86818310611abe57505050611a0e92500388611697565b9360005b8751811015611aa9576001600160a01b0380611a2e838b611b50565b511690600090815b838b8b8310611a81575b505050501580611a78575b611a59575b50600101611a12565b86611a7191611a6b600194998b611b50565b5261190c565b9590611a50565b50858710611a4b565b611a8c838592611b50565b511614611a9b57600101611a36565b50505060013880838b611a40565b50949791969095509293909260010191611958565b85546001600160a01b031684526001958601958d955093019291909101906119f7565b919082018092116110db57565b600260015414611aff576002600155565b604051633ee5aeb560e01b8152600490fd5b818102929181159184041417156110db57565b6000546001600160a01b03163303611b3857565b60405163118cdaa760e01b8152336004820152602490fd5b805182101561160e5760209160051b010190565b6000526004602052604060002060008154905b818110611bb85750600160401b811015610a8857611b9a916001820181556115f6565b81546001600160a01b0360039290921b91821b19163390911b179055565b611bc281846115f6565b905460039190911b1c6001600160a01b03163314611be257600101611b77565b50505056fea264697066735822122037796414aa058da2e9f94e859f429c205ec9368e5ea28d302c452a3caef78f5364736f6c63430008180033608034620003ce57601f90601f19906001600160401b039062002705388190038581018516830184811184821017620003b857839282916040528339602092839181010312620003ce57516001600160a01b03948582169391849003620003ce576200006a620003d3565b92601284527114dbdd5b189bdd5b99141b195919d953919560721b8185015262000093620003d3565b90600582526414d413919560da1b81830152845196848811620003b8576000978854966001978881811c91168015620003ad575b85821014620003995790818784931162000346575b508490878311600114620002e5578b92620002d9575b5050600019600383901b1c191690871b1788555b8251948511620002c55785548681811c91168015620002ba575b83821014620002a6579081858796959493116200024d575b5081938511600114620001e85750508692620001dc575b5050600019600383901b1c191690821b1790555b3315620001c35760068054336001600160a01b03198083168217909355604051959091167f8be0079c531659141344cd1fd0a4f28419497f9722a3daafe3b4186f6b6457e08580a3600a541617600a556009556123119081620003f48239f35b604051631e4fbdf760e01b815260048101839052602490fd5b0151905038806200014f565b869593929193168589528389209389905b82821062000233575050841162000219575b505050811b01905562000163565b015160001960f88460031b161c191690553880806200020b565b8484015186558897909501949384019390810190620001f9565b9091929394508689528289208580880160051c8201928589106200029c575b9188978a9297969594930160051c01915b8281106200028d57505062000138565b8b81558897508991016200027d565b925081926200026c565b634e487b7160e01b89526022600452602489fd5b90607f169062000120565b634e487b7160e01b88526041600452602488fd5b015190503880620000f2565b90848a9416918c8052868d20928d5b888282106200032f575050841162000315575b505050811b01885562000106565b015160001960f88460031b161c1916905538808062000307565b8385015186558d97909501949384019301620002f4565b9091508a8052848b208780850160051c8201928786106200038f575b918b91869594930160051c01915b82811062000380575050620000dc565b8d81558594508b910162000370565b9250819262000362565b634e487b7160e01b8b52602260045260248bfd5b90607f1690620000c7565b634e487b7160e01b600052604160045260246000fd5b600080fd5b60408051919082016001600160401b03811183821017620003b85760405256fe608080604052600436101561001357600080fd5b60003560e01c90816301ffc9a7146119435750806306fdde0314611898578063081812fc1461185a578063095ea7b3146117fb5780632342edc91461174457806323b872dd1461172d578063291c73c3146116d55780634008c95e146115e957806342842e0e146115bb57806352de4ee514611507578063557e6cfe146114de5780636352211e146114ae5780636b48271a1461143a57806370a08231146113e1578063715018a61461138457806372f5806114610dbc5780638da5cb5b14610d9357806395d89b4114610cc45780639df9ce9014610c81578063a22cb46514610c17578063b88d4fde14610ba9578063c87b56dd14610239578063d082e3811461021b578063e985e9c5146101c55763f2fde38b1461013257600080fd5b346101c05760203660031901126101c05761014b6119f6565b610153611e77565b6001600160a01b039081169081156101a757600654826bffffffffffffffffffffffff60a01b821617600655167f8be0079c531659141344cd1fd0a4f28419497f9722a3daafe3b4186f6b6457e0600080a3005b604051631e4fbdf760e01b815260006004820152602490fd5b600080fd5b346101c05760403660031901126101c0576101de6119f6565b6101e6611a0c565b9060018060a01b03809116600052600560205260406000209116600052602052602060ff604060002054166040519015158152f35b346101c05760003660031901126101c0576020600954604051908152f35b346101c0576020806003193601126101c057610b3f60043580600052600283526108ab6101658460018060a01b0361027981604060002054161515611df9565b84600052600782526040600020946040519561029487611abf565b80548752866108b96a102927a71e17ba32bc3a1f60a91b6108ab6103f06102e160046001880154978b88019889526002810154976040810198895260608c60038401541691015201611b19565b9760808d019889526102f288612024565b996102ff8a519e51612024565b9861031f610318670de0b6b3a7640000809b5104612024565b9851612024565b9a5198816000526007835261039661038f6040600020926103856040519561034687611abf565b85548752608061037b60046001890154988b8b01998a5260028101549c60408c019d8e5260038201541660608c015201611b19565b9701968752612024565b9451935104612024565b9451612024565b604051936103d360278683810194660213637b1b59d160cd1b86526103c3815180928786860191016119ae565b8101036007810188520186611af7565b6040519889967f3c7376672077696474683d2234303022206865696768743d223430302220786d838901527f6c6e733d22687474703a2f2f7777772e77332e6f72672f323030302f737667226040890152601f60f91b6060890152651e3232b3399f60d11b60618901527f3c6c696e6561724772616469656e742069643d226267222078313d223025222060678901527f79313d223025222078323d2231303025222079323d2231303025223e0000000060878901527f3c73746f70206f66667365743d22302522207374796c653d2273746f702d636f60a38901527f6c6f723a233636376565613b73746f702d6f7061636974793a3122202f3e000060c38901527f3c73746f70206f66667365743d223130302522207374796c653d2273746f702d60e18901527f636f6c6f723a233736346261323b73746f702d6f7061636974793a3122202f3e610101890152701e17b634b732b0b923b930b234b2b73a1f60791b610121890152661e17b232b3399f60c91b6101328901527f3c726563742077696474683d2234303022206865696768743d223430302220666101398901526f34b6361e913ab9361411b1339491179f60811b6101598901527f3c7465787420783d223230302220793d2235302220746578742d616e63686f726101698901527f3d226d6964646c65222066696c6c3d2277686974652220666f6e742d73697a656101898901527f3d2232342220666f6e742d7765696768743d22626f6c64223e506c65646765206101a98901526927232a1e17ba32bc3a1f60b11b6101c98901527f3c7465787420783d223230302220793d223130302220746578742d616e63686f6101d3890152877f723d226d6964646c65222066696c6c3d2277686974652220666f6e742d73697a96876101f383015267653d223138223e2360c01b61021383015261069261021b9282878594519485930191016119ae565b890190661e17ba32bc3a1f60c91b968780928401527f3c7465787420783d223230302220793d223135302220746578742d616e63686f61022284015288610242840152700329e91189b111f21b0b6b830b4b3b71d1607d1b61026284015261027392610706825180938987850191016119ae565b01918201527f3c7465787420783d223230302220793d223230302220746578742d616e63686f61027a8201528661029a82015266329e911918111f60c91b6102ba8201526107606102c194835193849187850191016119ae565b01918201527f3c7465787420783d223230302220793d223235302220746578742d616e63686f6102cc820152836102ec8201527f653d223134223e506c6564676564206f6e3c2f746578743e000000000000000061030c8201527f3c7465787420783d223230302220793d223238302220746578742d616e63686f6103248201528361034482015266329e91189a111f60c91b61036482015261080c61036b95518093878401906119ae565b01928301527f3c7465787420783d223230302220793d223335302220746578742d616e63686f6103728301526103928201527f653d22313222206f7061636974793d22302e38223e536f756c626f756e64202d6103b28201527f204e6f6e2d7472616e7366657261626c653c2f746578743e00000000000000006103d2820152651e17b9bb339f60d11b6103ea820152036103d0810184520182611af7565b6108b3612168565b906121d8565b93604051988996717b226e616d65223a2022506c65646765202360701b8d8901526108ee8d825192839160328c0191016119ae565b87017f222c20226465736372697074696f6e223a2022536f756c626f756e64204e465460328201527f20726570726573656e74696e67206120706c6564676520746f2063616d706169605282015263033b71d160e51b607282015261095d8d83519384916076850191016119ae565b019371222c202261747472696275746573223a205b60701b60768601527f7b2274726169745f74797065223a202243616d706169676e204944222c20227660888601526730b63ab2911d101160c11b948560a88201526109c78d835193849160b0850191016119ae565b019162089f4b60ea1b928360b08201527f7b2274726169745f74797065223a2022506c6564676520416d6f756e74222c2060b382015269113b30b63ab2911d101160b11b60d3820152610a248d835193849160dd850191016119ae565b019366081493d3889f4b60ca1b60dd8601527f7b2274726169745f74797065223a2022506c656467652044617465222c20227660e486015261010485015261010c93610a798c835193849188850191016119ae565b01928301527f7b2274726169745f74797065223a202243616d706169676e205469746c65222c61010f8301526a10113b30b63ab2911d101160a91b61012f83015261013a91610ad0825180938c86850191016119ae565b019161227d60f01b80928401527f5d2c2022696d616765223a2022646174613a696d6167652f7376672b786d6c3b61013c8401526618985cd94d8d0b60ca1b61015c84015261016392610b2b825180938c87850191016119ae565b019182015203610145810184520182611af7565b90610b91603d60405180947f646174613a6170706c69636174696f6e2f6a736f6e3b6261736536342c00000085830152610b81815180928786860191016119ae565b810103601d810185520183611af7565b610ba56040519282849384528301906119d1565b0390f35b346101c05760803660031901126101c057610bc26119f6565b610bca611a0c565b906044356064359267ffffffffffffffff84116101c057366023850112156101c057610c03610c15943690602481600401359101611bda565b92610c0f838383611c11565b33611ea3565b005b346101c05760403660031901126101c057610c306119f6565b50602435801515036101c05760405162461bcd60e51b815260206004820152601f60248201527f536f756c626f756e643a20417070726f76616c206e6f7420616c6c6f776564006044820152606490fd5b346101c05760203660031901126101c057610c9a6119f6565b610ca2611e77565b600a80546001600160a01b0319166001600160a01b0392909216919091179055005b346101c05760003660031901126101c057604051600060018260015492610cea84611a85565b9283835260209485600182169182600014610d73575050600114610d16575b50610b9192500383611af7565b84915060016000527fb10e2d527612073b26eecdfd717e6a320cf44b4afac2b0732d9fcbe2b7fa0cf6906000915b858310610d5b575050610b91935082010185610d09565b80548389018501528794508693909201918101610d44565b60ff191685820152610b9195151560051b8501019250879150610d099050565b346101c05760003660031901126101c0576006546040516001600160a01b039091168152602090f35b346101c05760803660031901126101c057610dd56119f6565b60643567ffffffffffffffff81116101c057366023820112156101c057610e06903690602481600401359101611bda565b600a546001600160a01b0316330361133f57600954906000198214611329576001820160095560405190610e3982611abf565b602435825260443560208084019182524260408086019182526001600160a01b0388811660608801908152608088019687526000898152600790955291909320955186559251600186015551600285015590516003840180546001600160a01b031916919092161790555180519067ffffffffffffffff821161125357610ec36004840154611a85565b601f81116112e2575b50602090601f8311600114611274576004929160009183611269575b50508160011b916000199060031b1c1916179101555b6001600160a01b038216600090815260086020526040902080546801000000000000000081101561125357610f3891600182018155611a57565b81549060031b9083821b91600019901b1916179055604051610f5981611adb565b600081526001600160a01b0383161561123a576000828152600260205260409020546001600160a01b0316151580611232575b6111ed576000828152600260205260409020546001600160a01b0316806111b3575b6001600160a01b0384166000818152600360209081526040808320805460010190558683526002909152812080546001600160a01b0319168317905584919083907fddf252ad1be2c89b69c2b068fc378daa952ba7f163c4a11628f55a4df523b3ef9080a461119a57823b611063575b506020916040516044358152827fe45c969cab595bc0d20ef6e2d8bd0e5c48f68c312f6ef85ca536b19a99f4a913856024359460018060a01b031693a4604051908152f35b6040516020818061109d630a85bd0160e11b95868352336004840152600060248401528760448401526080606484015260848301906119d1565b038160006001600160a01b0389165af160009181611155575b5061111e57833d15611116573d906110cd82611bbe565b916110db6040519384611af7565b82523d6000602084013e5b8151918261110f57604051633250574960e11b81526001600160a01b0383166004820152602490fd5b9050602001fd5b6060906110e6565b6001600160e01b0319160361113457602061101e565b604051633250574960e11b81526001600160a01b0383166004820152602490fd5b9091506020813d602011611192575b8161117160209383611af7565b810103126101c057516001600160e01b0319811681036101c05790856110b6565b3d9150611164565b6040516339e3563760e11b815260006004820152602490fd5b600460205260406000206bffffffffffffffffffffffff60a01b815416905580600052600360205260406000206000198154019055610fae565b60405162461bcd60e51b815260206004820152601f60248201527f536f756c626f756e643a205472616e73666572206e6f7420616c6c6f776564006044820152606490fd5b506001610f8c565b604051633250574960e11b815260006004820152602490fd5b634e487b7160e01b600052604160045260246000fd5b015190508680610ee8565b90601f198316916004850160005260206000209260005b8181106112ca575091600193918560049694106112b1575b505050811b01910155610efe565b015160001960f88460031b161c191690558680806112a3565b9293602060018192878601518155019501930161128b565b600484016000526020600020601f840160051c810160208510611322575b601f830160051c82018110611316575050610ecc565b60008155600101611300565b5080611300565b634e487b7160e01b600052601160045260246000fd5b60405162461bcd60e51b815260206004820152601d60248201527f4f6e6c7920706c6564676520636f6e74726163742063616e206d696e740000006044820152606490fd5b346101c05760003660031901126101c05761139d611e77565b600680546001600160a01b031981169091556000906001600160a01b03167f8be0079c531659141344cd1fd0a4f28419497f9722a3daafe3b4186f6b6457e08280a3005b346101c05760203660031901126101c0576001600160a01b036114026119f6565b1680156114215760005260036020526020604060002054604051908152f35b6040516322718ad960e21b815260006004820152602490fd5b346101c05760203660031901126101c057600435600052600760205260406000208054610ba5600183015492600281015490611485600460018060a01b036003840154169201611b19565b91604051958695865260208601526040850152606084015260a0608084015260a08301906119d1565b346101c05760203660031901126101c05760206114cc600435611e3c565b6040516001600160a01b039091168152f35b346101c05760003660031901126101c057600a546040516001600160a01b039091168152602090f35b346101c0576020806003193601126101c0576001600160a01b036115296119f6565b1660005260088152604060002060405190818382549182815201908192600052846000209060005b868282106115a757868661156782880383611af7565b604051928392818401908285525180915260408401929160005b82811061159057505050500390f35b835185528695509381019392810192600101611581565b835485529093019260019283019201611551565b346101c057610c156115cc36611a22565b90604051926115da84611adb565b60008452610c0f838383611c11565b346101c0576020806003193601126101c0576004356060608060405161160e81611abf565b60008152600085820152600060408201526000838201520152806000526002825260018060a01b039061164982604060002054161515611df9565b60005260078252610ba560406000206040519261166584611abf565b8154845260018201549185850192835260028101546040860190815261169b600484600385015416936060890194855201611b19565b93608087019485526040519788978189525190880152516040870152516060860152511660808401525160a08084015260c08301906119d1565b346101c05760403660031901126101c0576116ee6119f6565b6001600160a01b03166000908152600860205260409020805460243591908210156101c05760209161171f91611a57565b90546040519160031b1c8152f35b346101c057610c1561173e36611a22565b91611c11565b346101c0576020806003193601126101c0576001600160a01b036117666119f6565b16600052600881526040600020604051808284829454938481520190600052846000209260005b868282106117e557846117a281860382611af7565b600091825b82518410156117dd57818460051b84010151600052600782526001604060002001548101809111611329576001909301926117a7565b604051908152f35b855484526001958601958795509301920161178d565b346101c05760403660031901126101c0576118146119f6565b5060405162461bcd60e51b815260206004820152601f60248201527f536f756c626f756e643a20417070726f76616c206e6f7420616c6c6f776564006044820152606490fd5b346101c05760203660031901126101c05760043561187781611e3c565b506000526004602052602060018060a01b0360406000205416604051908152f35b346101c05760003660031901126101c0576040516000805490826118bb83611a85565b9182825260209360019085600182169182600014610d735750506001146118e95750610b9192500383611af7565b6000808052859250907f290decd9548b62a8d60345a988386fc84ba6bc95484008f6362f93160ef3e5635b85831061192b575050610b91935082010185610d09565b80548389018501528794508693909201918101611914565b346101c05760203660031901126101c0576004359063ffffffff60e01b82168092036101c0576020916380ac58cd60e01b811490811561199d575b811561198c575b5015158152f35b6301ffc9a760e01b14905083611985565b635b5e139f60e01b8114915061197e565b60005b8381106119c15750506000910152565b81810151838201526020016119b1565b906020916119ea815180928185528580860191016119ae565b601f01601f1916010190565b600435906001600160a01b03821682036101c057565b602435906001600160a01b03821682036101c057565b60609060031901126101c0576001600160a01b039060043582811681036101c0579160243590811681036101c0579060443590565b8054821015611a6f5760005260206000200190600090565b634e487b7160e01b600052603260045260246000fd5b90600182811c92168015611ab5575b6020831014611a9f57565b634e487b7160e01b600052602260045260246000fd5b91607f1691611a94565b60a0810190811067ffffffffffffffff82111761125357604052565b6020810190811067ffffffffffffffff82111761125357604052565b90601f8019910116810190811067ffffffffffffffff82111761125357604052565b90604051918260008254611b2c81611a85565b90818452602094600191600181169081600014611b9c5750600114611b5d575b505050611b5b92500383611af7565b565b600090815285812095935091905b818310611b84575050611b5b9350820101388080611b4c565b85548884018501529485019487945091830191611b6b565b92505050611b5b94925060ff191682840152151560051b820101388080611b4c565b67ffffffffffffffff811161125357601f01601f191660200190565b929192611be682611bbe565b91611bf46040519384611af7565b8294818452818301116101c0578281602093846000960137010152565b6001600160a01b03918216929091831561123a5760009282845260209460028652604095838787205416151580611df1575b611dae579084918287526002815284888820541696879133151580611d18575b509060027fddf252ad1be2c89b69c2b068fc378daa952ba7f163c4a11628f55a4df523b3ef9284611ce9575b858352600381528b8320805460010190558683525289812080546001600160a01b0319168517905580a41692838303611cc85750505050565b6064945051926364283d7b60e01b8452600484015260248301526044820152fd5b868352600481528b832080546001600160a01b0319169055848352600381528b83208054600019019055611c8f565b91939450915080611d6d575b15611d3457859291879138611c63565b878688611d51576024915190637e27328960e01b82526004820152fd5b604491519063177e802f60e01b82523360048301526024820152fd5b503387148015611d92575b80611d245750858252600481523385898420541614611d24565b5086825260058152878220338352815260ff8883205416611d78565b60649087519062461bcd60e51b82526004820152601f60248201527f536f756c626f756e643a205472616e73666572206e6f7420616c6c6f776564006044820152fd5b506001611c43565b15611e0057565b60405162461bcd60e51b8152602060048201526014602482015273151bdad95b88191bd95cc81b9bdd08195e1a5cdd60621b6044820152606490fd5b6000818152600260205260409020546001600160a01b0316908115611e5f575090565b60249060405190637e27328960e01b82526004820152fd5b6006546001600160a01b03163303611e8b57565b60405163118cdaa760e01b8152336004820152602490fd5b909192833b611eb4575b5050505050565b604051630a85bd0160e11b8082526001600160a01b039384166004830152938316602482015260448101919091526080606482015260209591909316939091908390611f049060848301906119d1565b039285816000958187895af1849181611fae575b50611f78575050503d600014611f70573d611f3281611bbe565b90611f406040519283611af7565b81528091843d92013e5b80519283611f6b57604051633250574960e11b815260048101849052602490fd5b019050fd5b506060611f4a565b919450915063ffffffff60e01b1603611f9657503880808080611ead565b60249060405190633250574960e11b82526004820152fd5b9091508681813d8311611feb575b611fc68183611af7565b81010312611fe757516001600160e01b031981168103611fe7579038611f18565b8480fd5b503d611fbc565b90611ffc82611bbe565b6120096040519182611af7565b828152809261201a601f1991611bbe565b0190602036910137565b806000917a184f03e93ff9f4daa797ed6e38ed64bf6a1f0100000000000000008082101561215a575b506d04ee2d6d415b85acef81000000008083101561214b575b50662386f26fc100008083101561213c575b506305f5e1008083101561212d575b506127108083101561211e575b50606482101561210e575b600a80921015612104575b6001908160216120bc60018701611ff2565b95860101905b6120ce575b5050505090565b600019019083906f181899199a1a9b1b9c1cb0b131b232b360811b8282061a8353049182156120ff579190826120c2565b6120c7565b91600101916120aa565b919060646002910491019161209f565b60049193920491019138612094565b60089193920491019138612087565b60109193920491019138612078565b60209193920491019138612066565b60409350810491503861204d565b604051906060820182811067ffffffffffffffff82111761125357604052604082527f6768696a6b6c6d6e6f707172737475767778797a303132333435363738392b2f6040837f4142434445464748494a4b4c4d4e4f505152535455565758595a61626364656660208201520152565b9190918051156122c55780519260029160028501809511611329576003948590046001600160fe1b0381168103611329576122189060029694961b611ff2565b926020840192829183518401976020890192835194600085525b8a8110612278575050505060039394959650525106806001146122655760021461225a575090565b603d90600019015390565b50603d9081600019820153600119015390565b836004919b989b019a8b51600190603f9082828260121c16870101518453828282600c1c16870101518385015382828260061c168701015187850153168401015185820153019699612232565b5090506040516122d481611adb565b600081529056fea2646970667358221220adbb6820c48e7bdbca465343773f31a741a89ca53eafdc8d87d41d9a049fe1aa64736f6c63430008180033",
  "linkReferences": {},
  "deployedLinkReferences": {}
}